{"abi":[{"type":"constructor","inputs":[],"stateMutability":"nonpayable"},{"type":"function","name":"CLOCK_MODE","inputs":[],"outputs":[{"name":"","type":"string","internalType":"string"}],"stateMutability":"view"},{"type":"function","name":"COMMUNITY_ALLOCATION","inputs":[],"outputs":[{"name":"","type":"uint256","internalType":"uint256"}],"stateMutability":"view"},{"type":"function","name":"DEV_ALLOCATION","inputs":[],"outputs":[{"name":"","type":"uint256","internalType":"uint256"}],"stateMutability":"view"},{"type":"function","name":"DOMAIN_SEPARATOR","inputs":[],"outputs":[{"name":"","type":"bytes32","internalType":"bytes32"}],"stateMutability":"view"},{"type":"function","name":"LIQUIDITY_ALLOCATION","inputs":[],"outputs":[{"name":"","type":"uint256","internalType":"uint256"}],"stateMutability":"view"},{"type":"function","name":"TOTAL_SUPPLY","inputs":[],"outputs":[{"name":"","type":"uint256","internalType":"uint256"}],"stateMutability":"view"},{"type":"function","name":"UPGRADE_INTERFACE_VERSION","inputs":[],"outputs":[{"name":"","type":"string","internalType":"string"}],"stateMutability":"view"},{"type":"function","name":"addExemptAddress","inputs":[{"name":"addr","type":"address","internalType":"address"}],"outputs":[],"stateMutability":"nonpayable"},{"type":"function","name":"allowance","inputs":[{"name":"owner","type":"address","internalType":"address"},{"name":"spender","type":"address","internalType":"address"}],"outputs":[{"name":"","type":"uint256","internalType":"uint256"}],"stateMutability":"view"},{"type":"function","name":"approve","inputs":[{"name":"spender","type":"address","internalType":"address"},{"name":"value","type":"uint256","internalType":"uint256"}],"outputs":[{"name":"","type":"bool","internalType":"bool"}],"stateMutability":"nonpayable"},{"type":"function","name":"balanceOf","inputs":[{"name":"account","type":"address","internalType":"address"}],"outputs":[{"name":"","type":"uint256","internalType":"uint256"}],"stateMutability":"view"},{"type":"function","name":"checkpoints","inputs":[{"name":"account","type":"address","internalType":"address"},{"name":"pos","type":"uint32","internalType":"uint32"}],"outputs":[{"name":"","type":"tuple","internalType":"struct Checkpoints.Checkpoint208","components":[{"name":"_key","type":"uint48","internalType":"uint48"},{"name":"_value","type":"uint208","internalType":"uint208"}]}],"stateMutability":"view"},{"type":"function","name":"clock","inputs":[],"outputs":[{"name":"","type":"uint48","internalType":"uint48"}],"stateMutability":"view"},{"type":"function","name":"communityAddress","inputs":[],"outputs":[{"name":"","type":"address","internalType":"address"}],"stateMutability":"view"},{"type":"function","name":"decimals","inputs":[],"outputs":[{"name":"","type":"uint8","internalType":"uint8"}],"stateMutability":"view"},{"type":"function","name":"delegate","inputs":[{"name":"delegatee","type":"address","internalType":"address"}],"outputs":[],"stateMutability":"nonpayable"},{"type":"function","name":"delegateBySig","inputs":[{"name":"delegatee","type":"address","internalType":"address"},{"name":"nonce","type":"uint256","internalType":"uint256"},{"name":"expiry","type":"uint256","internalType":"uint256"},{"name":"v","type":"uint8","internalType":"uint8"},{"name":"r","type":"bytes32","internalType":"bytes32"},{"name":"s","type":"bytes32","internalType":"bytes32"}],"outputs":[],"stateMutability":"nonpayable"},{"type":"function","name":"delegates","inputs":[{"name":"account","type":"address","internalType":"address"}],"outputs":[{"name":"","type":"address","internalType":"address"}],"stateMutability":"view"},{"type":"function","name":"devAddress","inputs":[],"outputs":[{"name":"","type":"address","internalType":"address"}],"stateMutability":"view"},{"type":"function","name":"eip712Domain","inputs":[],"outputs":[{"name":"fields","type":"bytes1","internalType":"bytes1"},{"name":"name","type":"string","internalType":"string"},{"name":"version","type":"string","internalType":"string"},{"name":"chainId","type":"uint256","internalType":"uint256"},{"name":"verifyingContract","type":"address","internalType":"address"},{"name":"salt","type":"bytes32","internalType":"bytes32"},{"name":"extensions","type":"uint256[]","internalType":"uint256[]"}],"stateMutability":"view"},{"type":"function","name":"feeAddress","inputs":[],"outputs":[{"name":"","type":"address","internalType":"address"}],"stateMutability":"view"},{"type":"function","name":"feeRate","inputs":[],"outputs":[{"name":"","type":"uint256","internalType":"uint256"}],"stateMutability":"view"},{"type":"function","name":"getBalance","inputs":[{"name":"account","type":"address","internalType":"address"}],"outputs":[{"name":"","type":"uint256","internalType":"uint256"}],"stateMutability":"view"},{"type":"function","name":"getPastTotalSupply","inputs":[{"name":"timepoint","type":"uint256","internalType":"uint256"}],"outputs":[{"name":"","type":"uint256","internalType":"uint256"}],"stateMutability":"view"},{"type":"function","name":"getPastVotes","inputs":[{"name":"account","type":"address","internalType":"address"},{"name":"timepoint","type":"uint256","internalType":"uint256"}],"outputs":[{"name":"","type":"uint256","internalType":"uint256"}],"stateMutability":"view"},{"type":"function","name":"getVotes","inputs":[{"name":"account","type":"address","internalType":"address"}],"outputs":[{"name":"","type":"uint256","internalType":"uint256"}],"stateMutability":"view"},{"type":"function","name":"initialize","inputs":[{"name":"_devAddress","type":"address","internalType":"address"},{"name":"_communityAddress","type":"address","internalType":"address"},{"name":"_liquidityAddress","type":"address","internalType":"address"},{"name":"_feeAddress","type":"address","internalType":"address"},{"name":"_feeRate","type":"uint256","internalType":"uint256"}],"outputs":[],"stateMutability":"nonpayable"},{"type":"function","name":"isExemptAddress","inputs":[{"name":"addr","type":"address","internalType":"address"}],"outputs":[{"name":"","type":"bool","internalType":"bool"}],"stateMutability":"view"},{"type":"function","name":"liquidityAddress","inputs":[],"outputs":[{"name":"","type":"address","internalType":"address"}],"stateMutability":"view"},{"type":"function","name":"name","inputs":[],"outputs":[{"name":"","type":"string","internalType":"string"}],"stateMutability":"view"},{"type":"function","name":"nonces","inputs":[{"name":"owner","type":"address","internalType":"address"}],"outputs":[{"name":"","type":"uint256","internalType":"uint256"}],"stateMutability":"view"},{"type":"function","name":"numCheckpoints","inputs":[{"name":"account","type":"address","internalType":"address"}],"outputs":[{"name":"","type":"uint32","internalType":"uint32"}],"stateMutability":"view"},{"type":"function","name":"owner","inputs":[],"outputs":[{"name":"","type":"address","internalType":"address"}],"stateMutability":"view"},{"type":"function","name":"paused","inputs":[],"outputs":[{"name":"","type":"bool","internalType":"bool"}],"stateMutability":"view"},{"type":"function","name":"permit","inputs":[{"name":"owner","type":"address","internalType":"address"},{"name":"spender","type":"address","internalType":"address"},{"name":"value","type":"uint256","internalType":"uint256"},{"name":"deadline","type":"uint256","internalType":"uint256"},{"name":"v","type":"uint8","internalType":"uint8"},{"name":"r","type":"bytes32","internalType":"bytes32"},{"name":"s","type":"bytes32","internalType":"bytes32"}],"outputs":[],"stateMutability":"nonpayable"},{"type":"function","name":"proxiableUUID","inputs":[],"outputs":[{"name":"","type":"bytes32","internalType":"bytes32"}],"stateMutability":"view"},{"type":"function","name":"removeExemptAddress","inputs":[{"name":"addr","type":"address","internalType":"address"}],"outputs":[],"stateMutability":"nonpayable"},{"type":"function","name":"renounceOwnership","inputs":[],"outputs":[],"stateMutability":"nonpayable"},{"type":"function","name":"setFeeAddress","inputs":[{"name":"_feeAddress","type":"address","internalType":"address"}],"outputs":[],"stateMutability":"nonpayable"},{"type":"function","name":"setFeeRate","inputs":[{"name":"_feeRate","type":"uint256","internalType":"uint256"}],"outputs":[],"stateMutability":"nonpayable"},{"type":"function","name":"symbol","inputs":[],"outputs":[{"name":"","type":"string","internalType":"string"}],"stateMutability":"view"},{"type":"function","name":"totalSupply","inputs":[],"outputs":[{"name":"","type":"uint256","internalType":"uint256"}],"stateMutability":"view"},{"type":"function","name":"transfer","inputs":[{"name":"to","type":"address","internalType":"address"},{"name":"value","type":"uint256","internalType":"uint256"}],"outputs":[{"name":"","type":"bool","internalType":"bool"}],"stateMutability":"nonpayable"},{"type":"function","name":"transferFrom","inputs":[{"name":"from","type":"address","internalType":"address"},{"name":"to","type":"address","internalType":"address"},{"name":"value","type":"uint256","internalType":"uint256"}],"outputs":[{"name":"","type":"bool","internalType":"bool"}],"stateMutability":"nonpayable"},{"type":"function","name":"transferOwnership","inputs":[{"name":"newOwner","type":"address","internalType":"address"}],"outputs":[],"stateMutability":"nonpayable"},{"type":"function","name":"upgradeToAndCall","inputs":[{"name":"newImplementation","type":"address","internalType":"address"},{"name":"data","type":"bytes","internalType":"bytes"}],"outputs":[],"stateMutability":"payable"},{"type":"event","name":"Approval","inputs":[{"name":"owner","type":"address","indexed":true,"internalType":"address"},{"name":"spender","type":"address","indexed":true,"internalType":"address"},{"name":"value","type":"uint256","indexed":false,"internalType":"uint256"}],"anonymous":false},{"type":"event","name":"DelegateChanged","inputs":[{"name":"delegator","type":"address","indexed":true,"internalType":"address"},{"name":"fromDelegate","type":"address","indexed":true,"internalType":"address"},{"name":"toDelegate","type":"address","indexed":true,"internalType":"address"}],"anonymous":false},{"type":"event","name":"DelegateVotesChanged","inputs":[{"name":"delegate","type":"address","indexed":true,"internalType":"address"},{"name":"previousVotes","type":"uint256","indexed":false,"internalType":"uint256"},{"name":"newVotes","type":"uint256","indexed":false,"internalType":"uint256"}],"anonymous":false},{"type":"event","name":"EIP712DomainChanged","inputs":[],"anonymous":false},{"type":"event","name":"Initialized","inputs":[{"name":"version","type":"uint64","indexed":false,"internalType":"uint64"}],"anonymous":false},{"type":"event","name":"OwnershipTransferred","inputs":[{"name":"previousOwner","type":"address","indexed":true,"internalType":"address"},{"name":"newOwner","type":"address","indexed":true,"internalType":"address"}],"anonymous":false},{"type":"event","name":"Paused","inputs":[{"name":"account","type":"address","indexed":false,"internalType":"address"}],"anonymous":false},{"type":"event","name":"Transfer","inputs":[{"name":"from","type":"address","indexed":true,"internalType":"address"},{"name":"to","type":"address","indexed":true,"internalType":"address"},{"name":"value","type":"uint256","indexed":false,"internalType":"uint256"}],"anonymous":false},{"type":"event","name":"Unpaused","inputs":[{"name":"account","type":"address","indexed":false,"internalType":"address"}],"anonymous":false},{"type":"event","name":"Upgraded","inputs":[{"name":"implementation","type":"address","indexed":true,"internalType":"address"}],"anonymous":false},{"type":"error","name":"AddressEmptyCode","inputs":[{"name":"target","type":"address","internalType":"address"}]},{"type":"error","name":"CheckpointUnorderedInsertion","inputs":[]},{"type":"error","name":"ECDSAInvalidSignature","inputs":[]},{"type":"error","name":"ECDSAInvalidSignatureLength","inputs":[{"name":"length","type":"uint256","internalType":"uint256"}]},{"type":"error","name":"ECDSAInvalidSignatureS","inputs":[{"name":"s","type":"bytes32","internalType":"bytes32"}]},{"type":"error","name":"ERC1967InvalidImplementation","inputs":[{"name":"implementation","type":"address","internalType":"address"}]},{"type":"error","name":"ERC1967NonPayable","inputs":[]},{"type":"error","name":"ERC20ExceededSafeSupply","inputs":[{"name":"increasedSupply","type":"uint256","internalType":"uint256"},{"name":"cap","type":"uint256","internalType":"uint256"}]},{"type":"error","name":"ERC20InsufficientAllowance","inputs":[{"name":"spender","type":"address","internalType":"address"},{"name":"allowance","type":"uint256","internalType":"uint256"},{"name":"needed","type":"uint256","internalType":"uint256"}]},{"type":"error","name":"ERC20InsufficientBalance","inputs":[{"name":"sender","type":"address","internalType":"address"},{"name":"balance","type":"uint256","internalType":"uint256"},{"name":"needed","type":"uint256","internalType":"uint256"}]},{"type":"error","name":"ERC20InvalidApprover","inputs":[{"name":"approver","type":"address","internalType":"address"}]},{"type":"error","name":"ERC20InvalidReceiver","inputs":[{"name":"receiver","type":"address","internalType":"address"}]},{"type":"error","name":"ERC20InvalidSender","inputs":[{"name":"sender","type":"address","internalType":"address"}]},{"type":"error","name":"ERC20InvalidSpender","inputs":[{"name":"spender","type":"address","internalType":"address"}]},{"type":"error","name":"ERC2612ExpiredSignature","inputs":[{"name":"deadline","type":"uint256","internalType":"uint256"}]},{"type":"error","name":"ERC2612InvalidSigner","inputs":[{"name":"signer","type":"address","internalType":"address"},{"name":"owner","type":"address","internalType":"address"}]},{"type":"error","name":"ERC5805FutureLookup","inputs":[{"name":"timepoint","type":"uint256","internalType":"uint256"},{"name":"clock","type":"uint48","internalType":"uint48"}]},{"type":"error","name":"ERC6372InconsistentClock","inputs":[]},{"type":"error","name":"EnforcedPause","inputs":[]},{"type":"error","name":"ExpectedPause","inputs":[]},{"type":"error","name":"FailedCall","inputs":[]},{"type":"error","name":"InvalidAccountNonce","inputs":[{"name":"account","type":"address","internalType":"address"},{"name":"currentNonce","type":"uint256","internalType":"uint256"}]},{"type":"error","name":"InvalidInitialization","inputs":[]},{"type":"error","name":"NotInitializing","inputs":[]},{"type":"error","name":"OwnableInvalidOwner","inputs":[{"name":"owner","type":"address","internalType":"address"}]},{"type":"error","name":"OwnableUnauthorizedAccount","inputs":[{"name":"account","type":"address","internalType":"address"}]},{"type":"error","name":"ReentrancyGuardReentrantCall","inputs":[]},{"type":"error","name":"SafeCastOverflowedUintDowncast","inputs":[{"name":"bits","type":"uint8","internalType":"uint8"},{"name":"value","type":"uint256","internalType":"uint256"}]},{"type":"error","name":"UUPSUnauthorizedCallContext","inputs":[]},{"type":"error","name":"UUPSUnsupportedProxiableUUID","inputs":[{"name":"slot","type":"bytes32","internalType":"bytes32"}]},{"type":"error","name":"VotesExpiredSignature","inputs":[{"name":"expiry","type":"uint256","internalType":"uint256"}]}],"bytecode":{"object":"0x60a060405230608052348015610013575f5ffd5b5061001c610021565b6100d3565b7ff0c57e16840df040f15088dc2f81fe391c3923bec73e23a9662efc9c229c6a00805468010000000000000000900460ff16156100715760405163f92ee8a960e01b815260040160405180910390fd5b80546001600160401b03908116146100d05780546001600160401b0319166001600160401b0390811782556040519081527fc7f505b2f371ae2175ee4913f4499e1f2633a7b5936321eed1cdaeb6115181d29060200160405180910390a15b50565b6080516132356100f95f395f81816116600152818161168901526117c801526132355ff3fe608060405260043610610275575f3560e01c80637b1c359c1161014a578063993eb1c5116100be578063dd62ed3e11610078578063dd62ed3e146107c2578063f1127ed8146107e1578063f2fde38b1461082c578063f7013ef61461084b578063f8b2cb4f1461086a578063f9428f3814610889575f5ffd5b8063993eb1c5146107025780639ab24eb014610716578063a9059cbb14610735578063ad3cb1cc14610754578063c3cda52014610784578063d505accf146107a3575f5ffd5b80638da5cb5b1161010f5780638da5cb5b146106345780638e539e8c14610670578063902d55a51461068f57806391ddadf4146106ae57806395d89b41146106d9578063978bbdb9146106ed575f5ffd5b80637b1c359c146105915780637ecebe00146105b057806384b0196e146105cf57806386e476dd146105f65780638705fcd414610615575f5ffd5b80634bf5d7e9116101ec5780635c19a95c116101a65780635c19a95c146104b65780635c975abb146104d55780636078c0f91461050b5780636fcfff451461052a57806370a082311461055e578063715018a61461057d575f5ffd5b80634bf5d7e9146104115780634f1ef286146104255780635207b6b61461043857806352d1902d1461044c578063587cde1e146104605780635a5759b41461047f575f5ffd5b80633221c93f1161023d5780633221c93f146103495780633644e515146103805780633a46b1a8146103945780633ad10ef6146103b357806341275358146103d157806345596e2e146103f0575f5ffd5b806306fdde0314610279578063095ea7b3146102a357806318160ddd146102d257806323b872dd1461030f578063313ce5671461032e575b5f5ffd5b348015610284575f5ffd5b5061028d61089d565b60405161029a9190612b74565b60405180910390f35b3480156102ae575f5ffd5b506102c26102bd366004612ba1565b610942565b604051901515815260200161029a565b3480156102dd575f5ffd5b507f52c63247e1f47db19d5ce0460030c497f067ca4cebf71ba98eeadabe20bace02545b60405190815260200161029a565b34801561031a575f5ffd5b506102c2610329366004612bc9565b61095b565b348015610339575f5ffd5b506040516012815260200161029a565b348015610354575f5ffd5b50600254610368906001600160a01b031681565b6040516001600160a01b03909116815260200161029a565b34801561038b575f5ffd5b50610301610980565b34801561039f575f5ffd5b506103016103ae366004612ba1565b61098e565b3480156103be575f5ffd5b505f54610368906001600160a01b031681565b3480156103dc575f5ffd5b50600354610368906001600160a01b031681565b3480156103fb575f5ffd5b5061040f61040a366004612c03565b6109d9565b005b34801561041c575f5ffd5b5061028d610a47565b61040f610433366004612c2e565b610abf565b348015610443575f5ffd5b50610301601481565b348015610457575f5ffd5b50610301610ade565b34801561046b575f5ffd5b5061036861047a366004612cf2565b610af9565b34801561048a575f5ffd5b506102c2610499366004612cf2565b6001600160a01b03165f9081526005602052604090205460ff1690565b3480156104c1575f5ffd5b5061040f6104d0366004612cf2565b610b22565b3480156104e0575f5ffd5b507fcd5ed15c6e187e77e9aee88184c21f4f2182ab5827cb3b7e07fbedcd63f033005460ff166102c2565b348015610516575f5ffd5b5061040f610525366004612cf2565b610b2d565b348015610535575f5ffd5b50610549610544366004612cf2565b610b58565b60405163ffffffff909116815260200161029a565b348015610569575f5ffd5b50610301610578366004612cf2565b610b62565b348015610588575f5ffd5b5061040f610b92565b34801561059c575f5ffd5b5061040f6105ab366004612cf2565b610ba5565b3480156105bb575f5ffd5b506103016105ca366004612cf2565b610bcd565b3480156105da575f5ffd5b506105e3610bd7565b60405161029a9796959493929190612d0b565b348015610601575f5ffd5b50600154610368906001600160a01b031681565b348015610620575f5ffd5b5061040f61062f366004612cf2565b610c80565b34801561063f575f5ffd5b507f9016d09d72d40fdae2fd8ceac6b6234c7706214fd39c1cd1e609a0528c199300546001600160a01b0316610368565b34801561067b575f5ffd5b5061030161068a366004612c03565b610d00565b34801561069a575f5ffd5b506103016b033b2e3c9fd0803ce800000081565b3480156106b9575f5ffd5b506106c2610d35565b60405165ffffffffffff909116815260200161029a565b3480156106e4575f5ffd5b5061028d610d3e565b3480156106f8575f5ffd5b5061030160045481565b34801561070d575f5ffd5b50610301601e81565b348015610721575f5ffd5b50610301610730366004612cf2565b610d7c565b348015610740575f5ffd5b506102c261074f366004612ba1565b610dca565b34801561075f575f5ffd5b5061028d604051806040016040528060058152602001640352e302e360dc1b81525081565b34801561078f575f5ffd5b5061040f61079e366004612db1565b610dd7565b3480156107ae575f5ffd5b5061040f6107bd366004612e05565b610e93565b3480156107cd575f5ffd5b506103016107dc366004612e6b565b610fac565b3480156107ec575f5ffd5b506108006107fb366004612e9c565b610ff5565b60408051825165ffffffffffff1681526020928301516001600160d01b0316928101929092520161029a565b348015610837575f5ffd5b5061040f610846366004612cf2565b611012565b348015610856575f5ffd5b5061040f610865366004612ed9565b61104f565b348015610875575f5ffd5b50610301610884366004612cf2565b61140c565b348015610894575f5ffd5b50610301603281565b60605f5f5160206131a05f395f51905f525b90508060030180546108c090612f31565b80601f01602080910402602001604051908101604052809291908181526020018280546108ec90612f31565b80156109375780601f1061090e57610100808354040283529160200191610937565b820191905f5260205f20905b81548152906001019060200180831161091a57829003601f168201915b505050505091505090565b5f3361094f818585611416565b60019150505b92915050565b5f33610968858285611428565b61097385858561148c565b60019150505b9392505050565b5f6109896114e9565b905090565b5f5f5160206131805f395f51905f526109c86109a9846114f2565b6001600160a01b0386165f908152600184016020526040902090611540565b6001600160d01b0316949350505050565b6109e16115f0565b6064811115610a425760405162461bcd60e51b815260206004820152602260248201527f4d454d414f3a2046656520726174652063616e6e6f7420657863656564203130604482015261302560f01b60648201526084015b60405180910390fd5b600455565b6060610a5161164b565b65ffffffffffff16610a61610d35565b65ffffffffffff1614610a87576040516301bfc1c560e61b815260040160405180910390fd5b5060408051808201909152601d81527f6d6f64653d626c6f636b6e756d6265722666726f6d3d64656661756c74000000602082015290565b610ac7611655565b610ad0826116f9565b610ada8282611701565b5050565b5f610ae76117bd565b505f5160206131e05f395f51905f5290565b6001600160a01b039081165f9081525f5160206131805f395f51905f5260205260409020541690565b33610ada8183611806565b610b356115f0565b6001600160a01b03165f908152600560205260409020805460ff19166001179055565b5f6109558261188d565b5f805f5160206131a05f395f51905f525b6001600160a01b039093165f9081526020939093525050604090205490565b610b9a6115f0565b610ba35f6118dc565b565b610bad6115f0565b6001600160a01b03165f908152600560205260409020805460ff19169055565b5f6109558261194c565b5f60608082808083815f5160206131c05f395f51905f528054909150158015610c0257506001810154155b610c465760405162461bcd60e51b81526020600482015260156024820152741152540dcc4c8e88155b9a5b9a5d1a585b1a5e9959605a1b6044820152606401610a39565b610c4e611956565b610c56611994565b604080515f80825260208201909252600f60f81b9c939b5091995046985030975095509350915050565b610c886115f0565b6001600160a01b038116610cde5760405162461bcd60e51b815260206004820152601a60248201527f4d454d414f3a20696e76616c69642066656520616464726573730000000000006044820152606401610a39565b600380546001600160a01b0319166001600160a01b0392909216919091179055565b5f5f5160206131805f395f51905f52610d25610d1b846114f2565b6002830190611540565b6001600160d01b03169392505050565b5f61098961164b565b7f52c63247e1f47db19d5ce0460030c497f067ca4cebf71ba98eeadabe20bace0480546060915f5160206131a05f395f51905f52916108c090612f31565b6001600160a01b0381165f9081527fe8b26c30fad74198956032a3533d903385d56dd795af560196f9c78d4af40d01602052604081205f5160206131805f395f51905f5290610d25906119aa565b5f3361094f81858561148c565b83421115610dfb57604051632341d78760e11b815260048101859052602401610a39565b604080517fe48329057bfd03d55e49b547132e39cffd9c1820ad7b9d4c5307691425d15adf60208201526001600160a01b0388169181019190915260608101869052608081018590525f90610e7490610e6c9060a001604051602081830303815290604052805190602001206119e1565b858585611a0d565b9050610e808187611a39565b610e8a8188611806565b50505050505050565b83421115610eb75760405163313c898160e11b815260048101859052602401610a39565b5f7f6e71edae12b1b97f4d1f60370fef10105fa2faae0126114a169c64845d6126c9888888610ee58c611a77565b6040805160208101969096526001600160a01b0394851690860152929091166060840152608083015260a082015260c0810186905260e0016040516020818303038152906040528051906020012090505f610f3f826119e1565b90505f610f4e82878787611a0d565b9050896001600160a01b0316816001600160a01b031614610f95576040516325c0072360e11b81526001600160a01b0380831660048301528b166024820152604401610a39565b610fa08a8a8a611416565b50505050505050505050565b6001600160a01b039182165f9081527f52c63247e1f47db19d5ce0460030c497f067ca4cebf71ba98eeadabe20bace016020908152604080832093909416825291909152205490565b604080518082019091525f80825260208201526109798383611ab8565b61101a6115f0565b6001600160a01b03811661104357604051631e4fbdf760e01b81525f6004820152602401610a39565b61104c816118dc565b50565b7ff0c57e16840df040f15088dc2f81fe391c3923bec73e23a9662efc9c229c6a008054600160401b810460ff16159067ffffffffffffffff165f811580156110945750825b90505f8267ffffffffffffffff1660011480156110b05750303b155b9050811580156110be575080155b156110dc5760405163f92ee8a960e01b815260040160405180910390fd5b845467ffffffffffffffff19166001178555831561110657845460ff60401b1916600160401b1785555b61114a604051806040016040528060058152602001644d454d414f60d81b815250604051806040016040528060058152602001644d454d414f60d81b815250611b21565b611170604051806040016040528060058152602001644d454d414f60d81b815250611b33565b611178611b5e565b6111818a611b66565b611189611b5e565b611191611b77565b611199611b5e565b6001600160a01b038a166111ef5760405162461bcd60e51b815260206004820152601a60248201527f4d454d414f3a20696e76616c69642064657620616464726573730000000000006044820152606401610a39565b6001600160a01b0389166112455760405162461bcd60e51b815260206004820181905260248201527f4d454d414f3a20696e76616c696420636f6d6d756e69747920616464726573736044820152606401610a39565b6001600160a01b03881661129b5760405162461bcd60e51b815260206004820181905260248201527f4d454d414f3a20696e76616c6964206c697175696469747920616464726573736044820152606401610a39565b6001600160a01b0387166112f15760405162461bcd60e51b815260206004820152601a60248201527f4d454d414f3a20696e76616c69642066656520616464726573730000000000006044820152606401610a39565b5f80546001600160a01b03808d166001600160a01b03199283168117909355600180548d8316908416179055600280548c831690841617905560038054918b1691909216179055600487905561136990606461135a60146b033b2e3c9fd0803ce8000000612f7d565b6113649190612fa8565b611b87565b600154611392906001600160a01b0316606461135a601e6b033b2e3c9fd0803ce8000000612f7d565b6002546113bb906001600160a01b0316606461135a60326b033b2e3c9fd0803ce8000000612f7d565b8315610fa057845460ff60401b19168555604051600181527fc7f505b2f371ae2175ee4913f4499e1f2633a7b5936321eed1cdaeb6115181d29060200160405180910390a150505050505050505050565b5f61095582610b62565b6114238383836001611bbb565b505050565b5f6114338484610fac565b90505f19811015611486578181101561147857604051637dc7a0d960e11b81526001600160a01b03841660048201526024810182905260448101839052606401610a39565b61148684848484035f611bbb565b50505050565b6001600160a01b0383166114b557604051634b637e8f60e11b81525f6004820152602401610a39565b6001600160a01b0382166114de5760405163ec442f0560e01b81525f6004820152602401610a39565b611423838383611c9f565b5f610989611d22565b5f5f6114fc610d35565b90508065ffffffffffff16831061153757604051637669fc0f60e11b81526004810184905265ffffffffffff82166024820152604401610a39565b61097983611d95565b81545f908181600581111561159c575f61155984611dcb565b6115639085612fc7565b5f8881526020902090915081015465ffffffffffff908116908716101561158c5780915061159a565b611597816001612fda565b92505b505b5f6115a987878585611f1e565b905080156115e3576115cd876115c0600184612fc7565b5f91825260209091200190565b54600160301b90046001600160d01b03166115e5565b5f5b979650505050505050565b336116227f9016d09d72d40fdae2fd8ceac6b6234c7706214fd39c1cd1e609a0528c199300546001600160a01b031690565b6001600160a01b031614610ba35760405163118cdaa760e01b8152336004820152602401610a39565b5f61098943611d95565b306001600160a01b037f00000000000000000000000000000000000000000000000000000000000000001614806116db57507f00000000000000000000000000000000000000000000000000000000000000006001600160a01b03166116cf5f5160206131e05f395f51905f52546001600160a01b031690565b6001600160a01b031614155b15610ba35760405163703e46dd60e11b815260040160405180910390fd5b61104c6115f0565b816001600160a01b03166352d1902d6040518163ffffffff1660e01b8152600401602060405180830381865afa92505050801561175b575060408051601f3d908101601f1916820190925261175891810190612fed565b60015b61178357604051634c9c8ce360e01b81526001600160a01b0383166004820152602401610a39565b5f5160206131e05f395f51905f5281146117b357604051632a87526960e21b815260048101829052602401610a39565b6114238383611f7d565b306001600160a01b037f00000000000000000000000000000000000000000000000000000000000000001614610ba35760405163703e46dd60e11b815260040160405180910390fd5b5f5160206131805f395f51905f525f61181e84610af9565b6001600160a01b038581165f8181526020869052604080822080546001600160a01b031916898616908117909155905194955093928516927f3134e8a2e6d97e929a7e54011ea5485d7d196dd5f0ba4d4ef95803e8e3fc257f9190a461148681846118888761140c565b611fd2565b6001600160a01b0381165f9081527fe8b26c30fad74198956032a3533d903385d56dd795af560196f9c78d4af40d0160205260408120545f5160206131805f395f51905f529061097990612148565b7f9016d09d72d40fdae2fd8ceac6b6234c7706214fd39c1cd1e609a0528c19930080546001600160a01b031981166001600160a01b03848116918217845560405192169182907f8be0079c531659141344cd1fd0a4f28419497f9722a3daafe3b4186f6b6457e0905f90a3505050565b5f61095582612178565b7fa16a46d94261c7517cc8ff89f61c0ce93598e3c849801011dee649a6a557d10280546060915f5160206131c05f395f51905f52916108c090612f31565b60605f5f5160206131c05f395f51905f526108af565b80545f9080156119d9576119c3836115c0600184612fc7565b54600160301b90046001600160d01b0316610979565b5f9392505050565b5f6109556119ed6114e9565b8360405161190160f01b8152600281019290925260228201526042902090565b5f5f5f5f611a1d888888886121a0565b925092509250611a2d8282612268565b50909695505050505050565b5f611a4383611a77565b9050808214611423576040516301d4b62360e61b81526001600160a01b038416600482015260248101829052604401610a39565b6001600160a01b03165f9081527f5ab42ced628888259c08ac98db1eb0cf702fc1501344311d8b100cd1bfe4bb006020526040902080546001810190915590565b6040805180820182525f80825260208083018290526001600160a01b03861682527fe8b26c30fad74198956032a3533d903385d56dd795af560196f9c78d4af40d019052919091205f5160206131805f395f51905f5290611b199084612320565b949350505050565b611b2961238d565b610ada82826123d6565b611b3b61238d565b61104c81604051806040016040528060018152602001603160f81b815250612426565b610ba361238d565b611b6e61238d565b61104c81612485565b611b7f61238d565b610ba361248d565b6001600160a01b038216611bb05760405163ec442f0560e01b81525f6004820152602401610a39565b610ada5f8383611c9f565b5f5160206131a05f395f51905f526001600160a01b038516611bf25760405163e602df0560e01b81525f6004820152602401610a39565b6001600160a01b038416611c1b57604051634a1406b160e11b81525f6004820152602401610a39565b6001600160a01b038086165f90815260018301602090815260408083209388168352929052208390558115611c9857836001600160a01b0316856001600160a01b03167f8c5be1e5ebec7d5bd14f71427d1e84f3dd0314c0f7b2291e5b200ac8c7c3b92585604051611c8f91815260200190565b60405180910390a35b5050505050565b6001600160a01b03831615611d17575f611cb984846124bb565b90505f81611ce1576103e860045484611cd29190612f7d565b611cdc9190612fa8565b611ce3565b5f5b90508015611d0357600354611d039086906001600160a01b0316836124fc565b611c988585611d128487612fc7565b6124fc565b6114238383836124fc565b5f7f8b73c3c69bb8fe3d512ecc4cf759cc79239f7b179b0ffacaa9a75d522b39400f611d4c612581565b611d546125e9565b60408051602081019490945283019190915260608201524660808201523060a082015260c00160405160208183030381529060405280519060200120905090565b5f65ffffffffffff821115611dc7576040516306dfcc6560e41b81526030600482015260248101839052604401610a39565b5090565b5f60018211611dd8575090565b816001600160801b8210611df15760809190911c9060401b5b600160401b8210611e075760409190911c9060201b5b6401000000008210611e1e5760209190911c9060101b5b620100008210611e335760109190911c9060081b5b6101008210611e475760089190911c9060041b5b60108210611e5a5760049190911c9060021b5b60048210611e665760011b5b600302600190811c90818581611e7e57611e7e612f94565b048201901c90506001818581611e9657611e96612f94565b048201901c90506001818581611eae57611eae612f94565b048201901c90506001818581611ec657611ec6612f94565b048201901c90506001818581611ede57611ede612f94565b048201901c90506001818581611ef657611ef6612f94565b048201901c9050611f15818581611f0f57611f0f612f94565b04821190565b90039392505050565b5f5b81831015611f75575f611f33848461262b565b5f8781526020902090915065ffffffffffff86169082015465ffffffffffff161115611f6157809250611f6f565b611f6c816001612fda565b93505b50611f20565b509392505050565b611f8682612645565b6040516001600160a01b038316907fbc7cd75a20ee27fd9adebab32041f755214dbc6bffa90cc0225b39da2e5c2d3b905f90a2805115611fca5761142382826126a8565b610ada61271a565b5f5160206131805f395f51905f526001600160a01b0384811690841614801590611ffb57505f82115b15611486576001600160a01b038416156120a4576001600160a01b0384165f9081526001820160205260408120819061203f9061273961203a87612744565b612777565b6001600160d01b031691506001600160d01b03169150856001600160a01b03167fdec2bacdd2f05b59de34da9b523dff8be42e5e38e818c82fdb0bae774387a7248383604051612099929190918252602082015260400190565b60405180910390a250505b6001600160a01b03831615611486576001600160a01b0383165f908152600182016020526040812081906120de906127af61203a87612744565b6001600160d01b031691506001600160d01b03169150846001600160a01b03167fdec2bacdd2f05b59de34da9b523dff8be42e5e38e818c82fdb0bae774387a7248383604051612138929190918252602082015260400190565b60405180910390a2505050505050565b5f63ffffffff821115611dc7576040516306dfcc6560e41b81526020600482015260248101839052604401610a39565b5f807f5ab42ced628888259c08ac98db1eb0cf702fc1501344311d8b100cd1bfe4bb00610b73565b5f80807f7fffffffffffffffffffffffffffffff5d576e7357a4501ddfe92f46681b20a08411156121d957505f9150600390508261225e565b604080515f808252602082018084528a905260ff891692820192909252606081018790526080810186905260019060a0016020604051602081039080840390855afa15801561222a573d5f5f3e3d5ffd5b5050604051601f1901519150506001600160a01b03811661225557505f92506001915082905061225e565b92505f91508190505b9450945094915050565b5f82600381111561227b5761227b613004565b03612284575050565b600182600381111561229857612298613004565b036122b65760405163f645eedf60e01b815260040160405180910390fd5b60028260038111156122ca576122ca613004565b036122eb5760405163fce698f760e01b815260048101829052602401610a39565b60038260038111156122ff576122ff613004565b03610ada576040516335e2f38360e21b815260048101829052602401610a39565b604080518082019091525f8082526020820152825f018263ffffffff168154811061234d5761234d613018565b5f9182526020918290206040805180820190915291015465ffffffffffff81168252600160301b90046001600160d01b0316918101919091529392505050565b7ff0c57e16840df040f15088dc2f81fe391c3923bec73e23a9662efc9c229c6a0054600160401b900460ff16610ba357604051631afcd79f60e31b815260040160405180910390fd5b6123de61238d565b5f5160206131a05f395f51905f527f52c63247e1f47db19d5ce0460030c497f067ca4cebf71ba98eeadabe20bace036124178482613070565b50600481016114868382613070565b61242e61238d565b5f5160206131c05f395f51905f527fa16a46d94261c7517cc8ff89f61c0ce93598e3c849801011dee649a6a557d1026124678482613070565b50600381016124768382613070565b505f8082556001909101555050565b61101a61238d565b61249561238d565b60017f9b779b17422d0df92223018b32b4d1fa46e071723d6817e2486d003becc55f0055565b6001600160a01b0382165f9081526005602052604081205460ff16806109795750506001600160a01b03165f9081526005602052604090205460ff16919050565b6125078383836127ba565b6001600160a01b038316612576575f61253e7f52c63247e1f47db19d5ce0460030c497f067ca4cebf71ba98eeadabe20bace025490565b90506001600160d01b038082111561257357604051630e58ae9360e11b81526004810183905260248101829052604401610a39565b50505b6114238383836128f3565b5f5f5160206131c05f395f51905f5281612599611956565b8051909150156125b157805160209091012092915050565b815480156125c0579392505050565b7fc5d2460186f7233c927e7db2dcc703c0e500b653ca82273b7bfad8045d85a470935050505090565b5f5f5160206131c05f395f51905f5281612601611994565b80519091501561261957805160209091012092915050565b600182015480156125c0579392505050565b5f6126396002848418612fa8565b61097990848416612fda565b806001600160a01b03163b5f0361267a57604051634c9c8ce360e01b81526001600160a01b0382166004820152602401610a39565b5f5160206131e05f395f51905f5280546001600160a01b0319166001600160a01b0392909216919091179055565b60605f5f846001600160a01b0316846040516126c4919061312b565b5f60405180830381855af49150503d805f81146126fc576040519150601f19603f3d011682016040523d82523d5f602084013e612701565b606091505b5091509150612711858383612964565b95945050505050565b3415610ba35760405163b398979f60e01b815260040160405180910390fd5b5f6109798284613141565b5f6001600160d01b03821115611dc7576040516306dfcc6560e41b815260d0600482015260248101839052604401610a39565b5f5f6127a2612784610d35565b61279a612790886119aa565b868863ffffffff16565b8791906129c0565b915091505b935093915050565b5f6109798284613160565b5f5160206131a05f395f51905f526001600160a01b0384166127f45781816002015f8282546127e99190612fda565b909155506128649050565b6001600160a01b0384165f90815260208290526040902054828110156128465760405163391434e360e21b81526001600160a01b03861660048201526024810182905260448101849052606401610a39565b6001600160a01b0385165f9081526020839052604090209083900390555b6001600160a01b0383166128825760028101805483900390556128a0565b6001600160a01b0383165f9081526020829052604090208054830190555b826001600160a01b0316846001600160a01b03167fddf252ad1be2c89b69c2b068fc378daa952ba7f163c4a11628f55a4df523b3ef846040516128e591815260200190565b60405180910390a350505050565b5f5160206131805f395f51905f526001600160a01b03841661292557612922816002016127af61203a85612744565b50505b6001600160a01b038316612949576129468160020161273961203a85612744565b50505b61148661295585610af9565b61295e85610af9565b84611fd2565b60608261297957612974826129cd565b610979565b815115801561299057506001600160a01b0384163b155b156129b957604051639996b31560e01b81526001600160a01b0385166004820152602401610a39565b5080610979565b5f806127a28585856129f6565b8051156129dd5780518082602001fd5b60405163d6bda27560e01b815260040160405180910390fd5b82545f9081908015612aec575f612a12876115c0600185612fc7565b805490915065ffffffffffff80821691600160301b90046001600160d01b0316908816821115612a5557604051632520601d60e01b815260040160405180910390fd5b8765ffffffffffff168265ffffffffffff1603612a8e57825465ffffffffffff16600160301b6001600160d01b03891602178355612ade565b6040805180820190915265ffffffffffff808a1682526001600160d01b03808a1660208085019182528d54600181018f555f8f81529190912094519151909216600160301b029216919091179101555b94508593506127a792505050565b50506040805180820190915265ffffffffffff80851682526001600160d01b0380851660208085019182528854600181018a555f8a815291822095519251909316600160301b0291909316179201919091559050816127a7565b5f81518084528060208401602086015e5f602082860101526020601f19601f83011685010191505092915050565b602081525f6109796020830184612b46565b80356001600160a01b0381168114612b9c575f5ffd5b919050565b5f5f60408385031215612bb2575f5ffd5b612bbb83612b86565b946020939093013593505050565b5f5f5f60608486031215612bdb575f5ffd5b612be484612b86565b9250612bf260208501612b86565b929592945050506040919091013590565b5f60208284031215612c13575f5ffd5b5035919050565b634e487b7160e01b5f52604160045260245ffd5b5f5f60408385031215612c3f575f5ffd5b612c4883612b86565b9150602083013567ffffffffffffffff811115612c63575f5ffd5b8301601f81018513612c73575f5ffd5b803567ffffffffffffffff811115612c8d57612c8d612c1a565b604051601f8201601f19908116603f0116810167ffffffffffffffff81118282101715612cbc57612cbc612c1a565b604052818152828201602001871015612cd3575f5ffd5b816020840160208301375f602083830101528093505050509250929050565b5f60208284031215612d02575f5ffd5b61097982612b86565b60ff60f81b8816815260e060208201525f612d2960e0830189612b46565b8281036040840152612d3b8189612b46565b606084018890526001600160a01b038716608085015260a0840186905283810360c0850152845180825260208087019350909101905f5b81811015612d90578351835260209384019390920191600101612d72565b50909b9a5050505050505050505050565b803560ff81168114612b9c575f5ffd5b5f5f5f5f5f5f60c08789031215612dc6575f5ffd5b612dcf87612b86565b95506020870135945060408701359350612deb60608801612da1565b9598949750929560808101359460a0909101359350915050565b5f5f5f5f5f5f5f60e0888a031215612e1b575f5ffd5b612e2488612b86565b9650612e3260208901612b86565b95506040880135945060608801359350612e4e60808901612da1565b9699959850939692959460a0840135945060c09093013592915050565b5f5f60408385031215612e7c575f5ffd5b612e8583612b86565b9150612e9360208401612b86565b90509250929050565b5f5f60408385031215612ead575f5ffd5b612eb683612b86565b9150602083013563ffffffff81168114612ece575f5ffd5b809150509250929050565b5f5f5f5f5f60a08688031215612eed575f5ffd5b612ef686612b86565b9450612f0460208701612b86565b9350612f1260408701612b86565b9250612f2060608701612b86565b949793965091946080013592915050565b600181811c90821680612f4557607f821691505b602082108103612f6357634e487b7160e01b5f52602260045260245ffd5b50919050565b634e487b7160e01b5f52601160045260245ffd5b808202811582820484141761095557610955612f69565b634e487b7160e01b5f52601260045260245ffd5b5f82612fc257634e487b7160e01b5f52601260045260245ffd5b500490565b8181038181111561095557610955612f69565b8082018082111561095557610955612f69565b5f60208284031215612ffd575f5ffd5b5051919050565b634e487b7160e01b5f52602160045260245ffd5b634e487b7160e01b5f52603260045260245ffd5b601f82111561142357805f5260205f20601f840160051c810160208510156130515750805b601f840160051c820191505b81811015611c98575f815560010161305d565b815167ffffffffffffffff81111561308a5761308a612c1a565b61309e816130988454612f31565b8461302c565b6020601f8211600181146130d0575f83156130b95750848201515b5f19600385901b1c1916600184901b178455611c98565b5f84815260208120601f198516915b828110156130ff57878501518255602094850194600190920191016130df565b508482101561311c57868401515f19600387901b60f8161c191681555b50505050600190811b01905550565b5f82518060208501845e5f920191825250919050565b6001600160d01b03828116828216039081111561095557610955612f69565b6001600160d01b03818116838216019081111561095557610955612f6956fee8b26c30fad74198956032a3533d903385d56dd795af560196f9c78d4af40d0052c63247e1f47db19d5ce0460030c497f067ca4cebf71ba98eeadabe20bace00a16a46d94261c7517cc8ff89f61c0ce93598e3c849801011dee649a6a557d100360894a13ba1a3210667c828492db98dca3e2076cc3735a920a3ca505d382bbca2646970667358221220d82854262f186319294f03ee6704ad7c5eda7d9b3d158aae45e5c44eb9a5b8c964736f6c634300081c0033","linkReferences":{}},"methodIdentifiers":{"CLOCK_MODE()":"4bf5d7e9","COMMUNITY_ALLOCATION()":"993eb1c5","DEV_ALLOCATION()":"5207b6b6","DOMAIN_SEPARATOR()":"3644e515","LIQUIDITY_ALLOCATION()":"f9428f38","TOTAL_SUPPLY()":"902d55a5","UPGRADE_INTERFACE_VERSION()":"ad3cb1cc","addExemptAddress(address)":"6078c0f9","allowance(address,address)":"dd62ed3e","approve(address,uint256)":"095ea7b3","balanceOf(address)":"70a08231","checkpoints(address,uint32)":"f1127ed8","clock()":"91ddadf4","communityAddress()":"86e476dd","decimals()":"313ce567","delegate(address)":"5c19a95c","delegateBySig(address,uint256,uint256,uint8,bytes32,bytes32)":"c3cda520","delegates(address)":"587cde1e","devAddress()":"3ad10ef6","eip712Domain()":"84b0196e","feeAddress()":"41275358","feeRate()":"978bbdb9","getBalance(address)":"f8b2cb4f","getPastTotalSupply(uint256)":"8e539e8c","getPastVotes(address,uint256)":"3a46b1a8","getVotes(address)":"9ab24eb0","initialize(address,address,address,address,uint256)":"f7013ef6","isExemptAddress(address)":"5a5759b4","liquidityAddress()":"3221c93f","name()":"06fdde03","nonces(address)":"7ecebe00","numCheckpoints(address)":"6fcfff45","owner()":"8da5cb5b","paused()":"5c975abb","permit(address,address,uint256,uint256,uint8,bytes32,bytes32)":"d505accf","proxiableUUID()":"52d1902d","removeExemptAddress(address)":"7b1c359c","renounceOwnership()":"715018a6","setFeeAddress(address)":"8705fcd4","setFeeRate(uint256)":"45596e2e","symbol()":"95d89b41","totalSupply()":"18160ddd","transfer(address,uint256)":"a9059cbb","transferFrom(address,address,uint256)":"23b872dd","transferOwnership(address)":"f2fde38b","upgradeToAndCall(address,bytes)":"4f1ef286"},"id":86}