{"abi":[{"type":"constructor","inputs":[],"stateMutability":"nonpayable"},{"type":"function","name":"CLOCK_MODE","inputs":[],"outputs":[{"name":"","type":"string","internalType":"string"}],"stateMutability":"view"},{"type":"function","name":"COMMUNITY_ALLOCATION","inputs":[],"outputs":[{"name":"","type":"uint256","internalType":"uint256"}],"stateMutability":"view"},{"type":"function","name":"DEV_ALLOCATION","inputs":[],"outputs":[{"name":"","type":"uint256","internalType":"uint256"}],"stateMutability":"view"},{"type":"function","name":"DOMAIN_SEPARATOR","inputs":[],"outputs":[{"name":"","type":"bytes32","internalType":"bytes32"}],"stateMutability":"view"},{"type":"function","name":"LIQUIDITY_ALLOCATION","inputs":[],"outputs":[{"name":"","type":"uint256","internalType":"uint256"}],"stateMutability":"view"},{"type":"function","name":"TOTAL_SUPPLY","inputs":[],"outputs":[{"name":"","type":"uint256","internalType":"uint256"}],"stateMutability":"view"},{"type":"function","name":"UPGRADE_INTERFACE_VERSION","inputs":[],"outputs":[{"name":"","type":"string","internalType":"string"}],"stateMutability":"view"},{"type":"function","name":"addExemptAddress","inputs":[{"name":"addr","type":"address","internalType":"address"}],"outputs":[],"stateMutability":"nonpayable"},{"type":"function","name":"allowance","inputs":[{"name":"owner","type":"address","internalType":"address"},{"name":"spender","type":"address","internalType":"address"}],"outputs":[{"name":"","type":"uint256","internalType":"uint256"}],"stateMutability":"view"},{"type":"function","name":"antiSniperModule","inputs":[],"outputs":[{"name":"","type":"address","internalType":"address"}],"stateMutability":"view"},{"type":"function","name":"approve","inputs":[{"name":"spender","type":"address","internalType":"address"},{"name":"value","type":"uint256","internalType":"uint256"}],"outputs":[{"name":"","type":"bool","internalType":"bool"}],"stateMutability":"nonpayable"},{"type":"function","name":"balanceOf","inputs":[{"name":"account","type":"address","internalType":"address"}],"outputs":[{"name":"","type":"uint256","internalType":"uint256"}],"stateMutability":"view"},{"type":"function","name":"checkpoints","inputs":[{"name":"account","type":"address","internalType":"address"},{"name":"pos","type":"uint32","internalType":"uint32"}],"outputs":[{"name":"","type":"tuple","internalType":"struct Checkpoints.Checkpoint208","components":[{"name":"_key","type":"uint48","internalType":"uint48"},{"name":"_value","type":"uint208","internalType":"uint208"}]}],"stateMutability":"view"},{"type":"function","name":"clock","inputs":[],"outputs":[{"name":"","type":"uint48","internalType":"uint48"}],"stateMutability":"view"},{"type":"function","name":"communityAddress","inputs":[],"outputs":[{"name":"","type":"address","internalType":"address"}],"stateMutability":"view"},{"type":"function","name":"decimals","inputs":[],"outputs":[{"name":"","type":"uint8","internalType":"uint8"}],"stateMutability":"view"},{"type":"function","name":"delegate","inputs":[{"name":"delegatee","type":"address","internalType":"address"}],"outputs":[],"stateMutability":"nonpayable"},{"type":"function","name":"delegateBySig","inputs":[{"name":"delegatee","type":"address","internalType":"address"},{"name":"nonce","type":"uint256","internalType":"uint256"},{"name":"expiry","type":"uint256","internalType":"uint256"},{"name":"v","type":"uint8","internalType":"uint8"},{"name":"r","type":"bytes32","internalType":"bytes32"},{"name":"s","type":"bytes32","internalType":"bytes32"}],"outputs":[],"stateMutability":"nonpayable"},{"type":"function","name":"delegates","inputs":[{"name":"account","type":"address","internalType":"address"}],"outputs":[{"name":"","type":"address","internalType":"address"}],"stateMutability":"view"},{"type":"function","name":"devAddress","inputs":[],"outputs":[{"name":"","type":"address","internalType":"address"}],"stateMutability":"view"},{"type":"function","name":"eip712Domain","inputs":[],"outputs":[{"name":"fields","type":"bytes1","internalType":"bytes1"},{"name":"name","type":"string","internalType":"string"},{"name":"version","type":"string","internalType":"string"},{"name":"chainId","type":"uint256","internalType":"uint256"},{"name":"verifyingContract","type":"address","internalType":"address"},{"name":"salt","type":"bytes32","internalType":"bytes32"},{"name":"extensions","type":"uint256[]","internalType":"uint256[]"}],"stateMutability":"view"},{"type":"function","name":"getFeeConfig","inputs":[],"outputs":[{"name":"","type":"address","internalType":"address"},{"name":"","type":"uint256","internalType":"uint256"}],"stateMutability":"view"},{"type":"function","name":"getPastTotalSupply","inputs":[{"name":"timepoint","type":"uint256","internalType":"uint256"}],"outputs":[{"name":"","type":"uint256","internalType":"uint256"}],"stateMutability":"view"},{"type":"function","name":"getPastVotes","inputs":[{"name":"account","type":"address","internalType":"address"},{"name":"timepoint","type":"uint256","internalType":"uint256"}],"outputs":[{"name":"","type":"uint256","internalType":"uint256"}],"stateMutability":"view"},{"type":"function","name":"getVotes","inputs":[{"name":"account","type":"address","internalType":"address"}],"outputs":[{"name":"","type":"uint256","internalType":"uint256"}],"stateMutability":"view"},{"type":"function","name":"initialize","inputs":[{"name":"_devAddress","type":"address","internalType":"address"},{"name":"_communityAddress","type":"address","internalType":"address"},{"name":"_liquidityAddress","type":"address","internalType":"address"},{"name":"_feeAddress","type":"address","internalType":"address"},{"name":"_feeRate","type":"uint256","internalType":"uint256"}],"outputs":[],"stateMutability":"nonpayable"},{"type":"function","name":"isExemptAddress","inputs":[{"name":"addr","type":"address","internalType":"address"}],"outputs":[{"name":"","type":"bool","internalType":"bool"}],"stateMutability":"view"},{"type":"function","name":"liquidityAddress","inputs":[],"outputs":[{"name":"","type":"address","internalType":"address"}],"stateMutability":"view"},{"type":"function","name":"name","inputs":[],"outputs":[{"name":"","type":"string","internalType":"string"}],"stateMutability":"view"},{"type":"function","name":"nonces","inputs":[{"name":"owner","type":"address","internalType":"address"}],"outputs":[{"name":"","type":"uint256","internalType":"uint256"}],"stateMutability":"view"},{"type":"function","name":"numCheckpoints","inputs":[{"name":"account","type":"address","internalType":"address"}],"outputs":[{"name":"","type":"uint32","internalType":"uint32"}],"stateMutability":"view"},{"type":"function","name":"owner","inputs":[],"outputs":[{"name":"","type":"address","internalType":"address"}],"stateMutability":"view"},{"type":"function","name":"paused","inputs":[],"outputs":[{"name":"","type":"bool","internalType":"bool"}],"stateMutability":"view"},{"type":"function","name":"permit","inputs":[{"name":"owner","type":"address","internalType":"address"},{"name":"spender","type":"address","internalType":"address"},{"name":"value","type":"uint256","internalType":"uint256"},{"name":"deadline","type":"uint256","internalType":"uint256"},{"name":"v","type":"uint8","internalType":"uint8"},{"name":"r","type":"bytes32","internalType":"bytes32"},{"name":"s","type":"bytes32","internalType":"bytes32"}],"outputs":[],"stateMutability":"nonpayable"},{"type":"function","name":"proxiableUUID","inputs":[],"outputs":[{"name":"","type":"bytes32","internalType":"bytes32"}],"stateMutability":"view"},{"type":"function","name":"removeExemptAddress","inputs":[{"name":"addr","type":"address","internalType":"address"}],"outputs":[],"stateMutability":"nonpayable"},{"type":"function","name":"renounceOwnership","inputs":[],"outputs":[],"stateMutability":"nonpayable"},{"type":"function","name":"setAntiSniperModule","inputs":[{"name":"module","type":"address","internalType":"address"}],"outputs":[],"stateMutability":"nonpayable"},{"type":"function","name":"setFeeAddress","inputs":[{"name":"addr","type":"address","internalType":"address"}],"outputs":[],"stateMutability":"nonpayable"},{"type":"function","name":"setFeeRate","inputs":[{"name":"rate","type":"uint256","internalType":"uint256"}],"outputs":[],"stateMutability":"nonpayable"},{"type":"function","name":"symbol","inputs":[],"outputs":[{"name":"","type":"string","internalType":"string"}],"stateMutability":"view"},{"type":"function","name":"totalSupply","inputs":[],"outputs":[{"name":"","type":"uint256","internalType":"uint256"}],"stateMutability":"view"},{"type":"function","name":"transfer","inputs":[{"name":"to","type":"address","internalType":"address"},{"name":"value","type":"uint256","internalType":"uint256"}],"outputs":[{"name":"","type":"bool","internalType":"bool"}],"stateMutability":"nonpayable"},{"type":"function","name":"transferFrom","inputs":[{"name":"from","type":"address","internalType":"address"},{"name":"to","type":"address","internalType":"address"},{"name":"value","type":"uint256","internalType":"uint256"}],"outputs":[{"name":"","type":"bool","internalType":"bool"}],"stateMutability":"nonpayable"},{"type":"function","name":"transferOwnership","inputs":[{"name":"newOwner","type":"address","internalType":"address"}],"outputs":[],"stateMutability":"nonpayable"},{"type":"function","name":"upgradeToAndCall","inputs":[{"name":"newImplementation","type":"address","internalType":"address"},{"name":"data","type":"bytes","internalType":"bytes"}],"outputs":[],"stateMutability":"payable"},{"type":"event","name":"AntiSniperModuleUpdated","inputs":[{"name":"module","type":"address","indexed":true,"internalType":"address"}],"anonymous":false},{"type":"event","name":"Approval","inputs":[{"name":"owner","type":"address","indexed":true,"internalType":"address"},{"name":"spender","type":"address","indexed":true,"internalType":"address"},{"name":"value","type":"uint256","indexed":false,"internalType":"uint256"}],"anonymous":false},{"type":"event","name":"DelegateChanged","inputs":[{"name":"delegator","type":"address","indexed":true,"internalType":"address"},{"name":"fromDelegate","type":"address","indexed":true,"internalType":"address"},{"name":"toDelegate","type":"address","indexed":true,"internalType":"address"}],"anonymous":false},{"type":"event","name":"DelegateVotesChanged","inputs":[{"name":"delegate","type":"address","indexed":true,"internalType":"address"},{"name":"previousVotes","type":"uint256","indexed":false,"internalType":"uint256"},{"name":"newVotes","type":"uint256","indexed":false,"internalType":"uint256"}],"anonymous":false},{"type":"event","name":"EIP712DomainChanged","inputs":[],"anonymous":false},{"type":"event","name":"Initialized","inputs":[{"name":"version","type":"uint64","indexed":false,"internalType":"uint64"}],"anonymous":false},{"type":"event","name":"OwnershipTransferred","inputs":[{"name":"previousOwner","type":"address","indexed":true,"internalType":"address"},{"name":"newOwner","type":"address","indexed":true,"internalType":"address"}],"anonymous":false},{"type":"event","name":"Paused","inputs":[{"name":"account","type":"address","indexed":false,"internalType":"address"}],"anonymous":false},{"type":"event","name":"Transfer","inputs":[{"name":"from","type":"address","indexed":true,"internalType":"address"},{"name":"to","type":"address","indexed":true,"internalType":"address"},{"name":"value","type":"uint256","indexed":false,"internalType":"uint256"}],"anonymous":false},{"type":"event","name":"Unpaused","inputs":[{"name":"account","type":"address","indexed":false,"internalType":"address"}],"anonymous":false},{"type":"event","name":"Upgraded","inputs":[{"name":"implementation","type":"address","indexed":true,"internalType":"address"}],"anonymous":false},{"type":"error","name":"AddressEmptyCode","inputs":[{"name":"target","type":"address","internalType":"address"}]},{"type":"error","name":"CheckpointUnorderedInsertion","inputs":[]},{"type":"error","name":"ECDSAInvalidSignature","inputs":[]},{"type":"error","name":"ECDSAInvalidSignatureLength","inputs":[{"name":"length","type":"uint256","internalType":"uint256"}]},{"type":"error","name":"ECDSAInvalidSignatureS","inputs":[{"name":"s","type":"bytes32","internalType":"bytes32"}]},{"type":"error","name":"ERC1967InvalidImplementation","inputs":[{"name":"implementation","type":"address","internalType":"address"}]},{"type":"error","name":"ERC1967NonPayable","inputs":[]},{"type":"error","name":"ERC20ExceededSafeSupply","inputs":[{"name":"increasedSupply","type":"uint256","internalType":"uint256"},{"name":"cap","type":"uint256","internalType":"uint256"}]},{"type":"error","name":"ERC20InsufficientAllowance","inputs":[{"name":"spender","type":"address","internalType":"address"},{"name":"allowance","type":"uint256","internalType":"uint256"},{"name":"needed","type":"uint256","internalType":"uint256"}]},{"type":"error","name":"ERC20InsufficientBalance","inputs":[{"name":"sender","type":"address","internalType":"address"},{"name":"balance","type":"uint256","internalType":"uint256"},{"name":"needed","type":"uint256","internalType":"uint256"}]},{"type":"error","name":"ERC20InvalidApprover","inputs":[{"name":"approver","type":"address","internalType":"address"}]},{"type":"error","name":"ERC20InvalidReceiver","inputs":[{"name":"receiver","type":"address","internalType":"address"}]},{"type":"error","name":"ERC20InvalidSender","inputs":[{"name":"sender","type":"address","internalType":"address"}]},{"type":"error","name":"ERC20InvalidSpender","inputs":[{"name":"spender","type":"address","internalType":"address"}]},{"type":"error","name":"ERC2612ExpiredSignature","inputs":[{"name":"deadline","type":"uint256","internalType":"uint256"}]},{"type":"error","name":"ERC2612InvalidSigner","inputs":[{"name":"signer","type":"address","internalType":"address"},{"name":"owner","type":"address","internalType":"address"}]},{"type":"error","name":"ERC5805FutureLookup","inputs":[{"name":"timepoint","type":"uint256","internalType":"uint256"},{"name":"clock","type":"uint48","internalType":"uint48"}]},{"type":"error","name":"ERC6372InconsistentClock","inputs":[]},{"type":"error","name":"EnforcedPause","inputs":[]},{"type":"error","name":"ExpectedPause","inputs":[]},{"type":"error","name":"FailedCall","inputs":[]},{"type":"error","name":"InvalidAccountNonce","inputs":[{"name":"account","type":"address","internalType":"address"},{"name":"currentNonce","type":"uint256","internalType":"uint256"}]},{"type":"error","name":"InvalidInitialization","inputs":[]},{"type":"error","name":"NotInitializing","inputs":[]},{"type":"error","name":"OwnableInvalidOwner","inputs":[{"name":"owner","type":"address","internalType":"address"}]},{"type":"error","name":"OwnableUnauthorizedAccount","inputs":[{"name":"account","type":"address","internalType":"address"}]},{"type":"error","name":"ReentrancyGuardReentrantCall","inputs":[]},{"type":"error","name":"SafeCastOverflowedUintDowncast","inputs":[{"name":"bits","type":"uint8","internalType":"uint8"},{"name":"value","type":"uint256","internalType":"uint256"}]},{"type":"error","name":"UUPSUnauthorizedCallContext","inputs":[]},{"type":"error","name":"UUPSUnsupportedProxiableUUID","inputs":[{"name":"slot","type":"bytes32","internalType":"bytes32"}]},{"type":"error","name":"VotesExpiredSignature","inputs":[{"name":"expiry","type":"uint256","internalType":"uint256"}]}],"bytecode":{"object":"0x60a060405230608052348015610013575f5ffd5b5061001c610021565b6100d3565b7ff0c57e16840df040f15088dc2f81fe391c3923bec73e23a9662efc9c229c6a00805468010000000000000000900460ff16156100715760405163f92ee8a960e01b815260040160405180910390fd5b80546001600160401b03908116146100d05780546001600160401b0319166001600160401b0390811782556040519081527fc7f505b2f371ae2175ee4913f4499e1f2633a7b5936321eed1cdaeb6115181d29060200160405180910390a15b50565b60805161336c6100f95f395f818161171b015281816117440152611883015261336c5ff3fe608060405260043610610275575f3560e01c80637b1c359c1161014a5780639ab24eb0116100be578063dbef442311610078578063dbef4423146107e0578063dd62ed3e146107ff578063f1127ed81461081e578063f2fde38b14610869578063f7013ef614610888578063f9428f38146108a7575f5ffd5b80639ab24eb014610715578063a9059cbb14610734578063ad3cb1cc14610753578063c3cda52014610783578063d505accf146107a2578063d89febc3146107c1575f5ffd5b80638da5cb5b1161010f5780638da5cb5b146106485780638e539e8c14610684578063902d55a5146106a357806391ddadf4146106c257806395d89b41146106ed578063993eb1c514610701575f5ffd5b80637b1c359c146105a55780637ecebe00146105c457806384b0196e146105e357806386e476dd1461060a5780638705fcd414610629575f5ffd5b80634f1ef286116101ec5780635c975abb116101a65780635c975abb146104b65780635fbbc0d2146104ec5780636078c0f91461051f5780636fcfff451461053e57806370a0823114610572578063715018a614610591575f5ffd5b80634f1ef286146104065780635207b6b61461041957806352d1902d1461042d578063587cde1e146104415780635a5759b4146104605780635c19a95c14610497575f5ffd5b80633221c93f1161023d5780633221c93f146103495780633644e515146103805780633a46b1a8146103945780633ad10ef6146103b357806345596e2e146103d15780634bf5d7e9146103f2575f5ffd5b806306fdde0314610279578063095ea7b3146102a357806318160ddd146102d257806323b872dd1461030f578063313ce5671461032e575b5f5ffd5b348015610284575f5ffd5b5061028d6108bb565b60405161029a9190612cab565b60405180910390f35b3480156102ae575f5ffd5b506102c26102bd366004612cd8565b610960565b604051901515815260200161029a565b3480156102dd575f5ffd5b507f52c63247e1f47db19d5ce0460030c497f067ca4cebf71ba98eeadabe20bace02545b60405190815260200161029a565b34801561031a575f5ffd5b506102c2610329366004612d00565b610979565b348015610339575f5ffd5b506040516012815260200161029a565b348015610354575f5ffd5b50600254610368906001600160a01b031681565b6040516001600160a01b03909116815260200161029a565b34801561038b575f5ffd5b5061030161099e565b34801561039f575f5ffd5b506103016103ae366004612cd8565b6109ac565b3480156103be575f5ffd5b505f54610368906001600160a01b031681565b3480156103dc575f5ffd5b506103f06103eb366004612d3a565b6109f7565b005b3480156103fd575f5ffd5b5061028d610a49565b6103f0610414366004612d65565b610ac1565b348015610424575f5ffd5b50610301601481565b348015610438575f5ffd5b50610301610ae0565b34801561044c575f5ffd5b5061036861045b366004612e29565b610afb565b34801561046b575f5ffd5b506102c261047a366004612e29565b6001600160a01b03165f9081526006602052604090205460ff1690565b3480156104a2575f5ffd5b506103f06104b1366004612e29565b610b24565b3480156104c1575f5ffd5b507fcd5ed15c6e187e77e9aee88184c21f4f2182ab5827cb3b7e07fbedcd63f033005460ff166102c2565b3480156104f7575f5ffd5b50610500610b2f565b604080516001600160a01b03909316835260208301919091520161029a565b34801561052a575f5ffd5b506103f0610539366004612e29565b610b4f565b348015610549575f5ffd5b5061055d610558366004612e29565b610b7a565b60405163ffffffff909116815260200161029a565b34801561057d575f5ffd5b5061030161058c366004612e29565b610b84565b34801561059c575f5ffd5b506103f0610bb4565b3480156105b0575f5ffd5b506103f06105bf366004612e29565b610bc7565b3480156105cf575f5ffd5b506103016105de366004612e29565b610bef565b3480156105ee575f5ffd5b506105f7610bf9565b60405161029a9796959493929190612e42565b348015610615575f5ffd5b50600154610368906001600160a01b031681565b348015610634575f5ffd5b506103f0610643366004612e29565b610ca2565b348015610653575f5ffd5b507f9016d09d72d40fdae2fd8ceac6b6234c7706214fd39c1cd1e609a0528c199300546001600160a01b0316610368565b34801561068f575f5ffd5b5061030161069e366004612d3a565b610d14565b3480156106ae575f5ffd5b506103016b033b2e3c9fd0803ce800000081565b3480156106cd575f5ffd5b506106d6610d49565b60405165ffffffffffff909116815260200161029a565b3480156106f8575f5ffd5b5061028d610d52565b34801561070c575f5ffd5b50610301601e81565b348015610720575f5ffd5b5061030161072f366004612e29565b610d90565b34801561073f575f5ffd5b506102c261074e366004612cd8565b610dde565b34801561075e575f5ffd5b5061028d604051806040016040528060058152602001640352e302e360dc1b81525081565b34801561078e575f5ffd5b506103f061079d366004612ee8565b610deb565b3480156107ad575f5ffd5b506103f06107bc366004612f3c565b610ea7565b3480156107cc575f5ffd5b506103f06107db366004612e29565b610fc0565b3480156107eb575f5ffd5b50600554610368906001600160a01b031681565b34801561080a575f5ffd5b50610301610819366004612fa2565b611060565b348015610829575f5ffd5b5061083d610838366004612fd3565b6110a9565b60408051825165ffffffffffff1681526020928301516001600160d01b0316928101929092520161029a565b348015610874575f5ffd5b506103f0610883366004612e29565b6110c6565b348015610893575f5ffd5b506103f06108a2366004613010565b611103565b3480156108b2575f5ffd5b50610301603281565b60605f5f5160206132d75f395f51905f525b90508060030180546108de90613068565b80601f016020809104026020016040519081016040528092919081815260200182805461090a90613068565b80156109555780601f1061092c57610100808354040283529160200191610955565b820191905f5260205f20905b81548152906001019060200180831161093857829003601f168201915b505050505091505090565b5f3361096d8185856114d1565b60019150505b92915050565b5f336109868582856114e3565b610991858585611547565b60019150505b9392505050565b5f6109a76115a4565b905090565b5f5f5160206132b75f395f51905f526109e66109c7846115ad565b6001600160a01b0386165f9081526001840160205260409020906115fb565b6001600160d01b0316949350505050565b6109ff6116ab565b6064811115610a445760405162461bcd60e51b815260206004820152600c60248201526b52617465203c3d203130302560a01b60448201526064015b60405180910390fd5b600455565b6060610a53611706565b65ffffffffffff16610a63610d49565b65ffffffffffff1614610a89576040516301bfc1c560e61b815260040160405180910390fd5b5060408051808201909152601d81527f6d6f64653d626c6f636b6e756d6265722666726f6d3d64656661756c74000000602082015290565b610ac9611710565b610ad2826117b4565b610adc82826117bc565b5050565b5f610ae9611878565b505f5160206133175f395f51905f5290565b6001600160a01b039081165f9081525f5160206132b75f395f51905f5260205260409020541690565b33610adc81836118c1565b5f5f610b396116ab565b50506003546004546001600160a01b0390911691565b610b576116ab565b6001600160a01b03165f908152600660205260409020805460ff19166001179055565b5f61097382611948565b5f805f5160206132d75f395f51905f525b6001600160a01b039093165f9081526020939093525050604090205490565b610bbc6116ab565b610bc55f611997565b565b610bcf6116ab565b6001600160a01b03165f908152600660205260409020805460ff19169055565b5f61097382611a07565b5f60608082808083815f5160206132f75f395f51905f528054909150158015610c2457506001810154155b610c685760405162461bcd60e51b81526020600482015260156024820152741152540dcc4c8e88155b9a5b9a5d1a585b1a5e9959605a1b6044820152606401610a3b565b610c70611a11565b610c78611a4f565b604080515f80825260208201909252600f60f81b9c939b5091995046985030975095509350915050565b610caa6116ab565b6001600160a01b038116610cf25760405162461bcd60e51b815260206004820152600f60248201526e496e76616c6964206164647265737360881b6044820152606401610a3b565b600380546001600160a01b0319166001600160a01b0392909216919091179055565b5f5f5160206132b75f395f51905f52610d39610d2f846115ad565b60028301906115fb565b6001600160d01b03169392505050565b5f6109a7611706565b7f52c63247e1f47db19d5ce0460030c497f067ca4cebf71ba98eeadabe20bace0480546060915f5160206132d75f395f51905f52916108de90613068565b6001600160a01b0381165f9081527fe8b26c30fad74198956032a3533d903385d56dd795af560196f9c78d4af40d01602052604081205f5160206132b75f395f51905f5290610d3990611a65565b5f3361096d818585611547565b83421115610e0f57604051632341d78760e11b815260048101859052602401610a3b565b604080517fe48329057bfd03d55e49b547132e39cffd9c1820ad7b9d4c5307691425d15adf60208201526001600160a01b0388169181019190915260608101869052608081018590525f90610e8890610e809060a00160405160208183030381529060405280519060200120611a9c565b858585611ac8565b9050610e948187611af4565b610e9e81886118c1565b50505050505050565b83421115610ecb5760405163313c898160e11b815260048101859052602401610a3b565b5f7f6e71edae12b1b97f4d1f60370fef10105fa2faae0126114a169c64845d6126c9888888610ef98c611b32565b6040805160208101969096526001600160a01b0394851690860152929091166060840152608083015260a082015260c0810186905260e0016040516020818303038152906040528051906020012090505f610f5382611a9c565b90505f610f6282878787611ac8565b9050896001600160a01b0316816001600160a01b031614610fa9576040516325c0072360e11b81526001600160a01b0380831660048301528b166024820152604401610a3b565b610fb48a8a8a6114d1565b50505050505050505050565b610fc86116ab565b6001600160a01b0381166110175760405162461bcd60e51b8152602060048201526016602482015275496e76616c6964206d6f64756c65206164647265737360501b6044820152606401610a3b565b600580546001600160a01b0319166001600160a01b0383169081179091556040517f513ddd595fedbc06e600c3fdde13c2fd157e2052fcfda70dc3c5838f1b4a01ab905f90a250565b6001600160a01b039182165f9081527f52c63247e1f47db19d5ce0460030c497f067ca4cebf71ba98eeadabe20bace016020908152604080832093909416825291909152205490565b604080518082019091525f80825260208201526109978383611b73565b6110ce6116ab565b6001600160a01b0381166110f757604051631e4fbdf760e01b81525f6004820152602401610a3b565b61110081611997565b50565b7ff0c57e16840df040f15088dc2f81fe391c3923bec73e23a9662efc9c229c6a008054600160401b810460ff16159067ffffffffffffffff165f811580156111485750825b90505f8267ffffffffffffffff1660011480156111645750303b155b905081158015611172575080155b156111905760405163f92ee8a960e01b815260040160405180910390fd5b845467ffffffffffffffff1916600117855583156111ba57845460ff60401b1916600160401b1785555b6111fe604051806040016040528060058152602001644d454d414f60d81b815250604051806040016040528060058152602001644d454d414f60d81b815250611bdc565b611224604051806040016040528060058152602001644d454d414f60d81b815250611bee565b61122c611c19565b6112358a611c21565b61123d611c19565b611245611c32565b61124d611c19565b6001600160a01b038a166112995760405162461bcd60e51b8152602060048201526013602482015272496e76616c696420646576206164647265737360681b6044820152606401610a3b565b6001600160a01b0389166112ef5760405162461bcd60e51b815260206004820152601960248201527f496e76616c696420636f6d6d756e6974792061646472657373000000000000006044820152606401610a3b565b6001600160a01b0388166113455760405162461bcd60e51b815260206004820152601960248201527f496e76616c6964206c69717569646974792061646472657373000000000000006044820152606401610a3b565b5f80546001600160a01b03808d166001600160a01b0319928316178355600180548d8316908416178155600280548d84169085168117909155600380548d851695169490941790935560048a905560066020527fbd33a4f5387d2490762a263aba532e8d9d5f8f50d3f937613d567f4301b1258b805460ff1990811683179091557fbf5d7f91be7ddfd38bbb5c0e82913bb75709bae2b5d64288a06fe93d69ef12bf805482168317905592845260408420805490931617909155905461142e9116606461141f60146b033b2e3c9fd0803ce80000006130b4565b61142991906130df565b611c42565b600154611457906001600160a01b0316606461141f601e6b033b2e3c9fd0803ce80000006130b4565b600254611480906001600160a01b0316606461141f60326b033b2e3c9fd0803ce80000006130b4565b8315610fb457845460ff60401b19168555604051600181527fc7f505b2f371ae2175ee4913f4499e1f2633a7b5936321eed1cdaeb6115181d29060200160405180910390a150505050505050505050565b6114de8383836001611c76565b505050565b5f6114ee8484611060565b90505f19811015611541578181101561153357604051637dc7a0d960e11b81526001600160a01b03841660048201526024810182905260448101839052606401610a3b565b61154184848484035f611c76565b50505050565b6001600160a01b03831661157057604051634b637e8f60e11b81525f6004820152602401610a3b565b6001600160a01b0382166115995760405163ec442f0560e01b81525f6004820152602401610a3b565b6114de838383611d5a565b5f6109a7611e90565b5f5f6115b7610d49565b90508065ffffffffffff1683106115f257604051637669fc0f60e11b81526004810184905265ffffffffffff82166024820152604401610a3b565b61099783611f03565b81545f9081816005811115611657575f61161484611f39565b61161e90856130fe565b5f8881526020902090915081015465ffffffffffff908116908716101561164757809150611655565b611652816001613111565b92505b505b5f6116648787858561208c565b9050801561169e576116888761167b6001846130fe565b5f91825260209091200190565b54600160301b90046001600160d01b03166116a0565b5f5b979650505050505050565b336116dd7f9016d09d72d40fdae2fd8ceac6b6234c7706214fd39c1cd1e609a0528c199300546001600160a01b031690565b6001600160a01b031614610bc55760405163118cdaa760e01b8152336004820152602401610a3b565b5f6109a743611f03565b306001600160a01b037f000000000000000000000000000000000000000000000000000000000000000016148061179657507f00000000000000000000000000000000000000000000000000000000000000006001600160a01b031661178a5f5160206133175f395f51905f52546001600160a01b031690565b6001600160a01b031614155b15610bc55760405163703e46dd60e11b815260040160405180910390fd5b6111006116ab565b816001600160a01b03166352d1902d6040518163ffffffff1660e01b8152600401602060405180830381865afa925050508015611816575060408051601f3d908101601f1916820190925261181391810190613124565b60015b61183e57604051634c9c8ce360e01b81526001600160a01b0383166004820152602401610a3b565b5f5160206133175f395f51905f52811461186e57604051632a87526960e21b815260048101829052602401610a3b565b6114de83836120eb565b306001600160a01b037f00000000000000000000000000000000000000000000000000000000000000001614610bc55760405163703e46dd60e11b815260040160405180910390fd5b5f5160206132b75f395f51905f525f6118d984610afb565b6001600160a01b038581165f8181526020869052604080822080546001600160a01b031916898616908117909155905194955093928516927f3134e8a2e6d97e929a7e54011ea5485d7d196dd5f0ba4d4ef95803e8e3fc257f9190a4611541818461194387612140565b61214a565b6001600160a01b0381165f9081527fe8b26c30fad74198956032a3533d903385d56dd795af560196f9c78d4af40d0160205260408120545f5160206132b75f395f51905f5290610997906122c0565b7f9016d09d72d40fdae2fd8ceac6b6234c7706214fd39c1cd1e609a0528c19930080546001600160a01b031981166001600160a01b03848116918217845560405192169182907f8be0079c531659141344cd1fd0a4f28419497f9722a3daafe3b4186f6b6457e0905f90a3505050565b5f610973826122f0565b7fa16a46d94261c7517cc8ff89f61c0ce93598e3c849801011dee649a6a557d10280546060915f5160206132f75f395f51905f52916108de90613068565b60605f5f5160206132f75f395f51905f526108cd565b80545f908015611a9457611a7e8361167b6001846130fe565b54600160301b90046001600160d01b0316610997565b5f9392505050565b5f610973611aa86115a4565b8360405161190160f01b8152600281019290925260228201526042902090565b5f5f5f5f611ad888888888612318565b925092509250611ae882826123e0565b50909695505050505050565b5f611afe83611b32565b90508082146114de576040516301d4b62360e61b81526001600160a01b038416600482015260248101829052604401610a3b565b6001600160a01b03165f9081527f5ab42ced628888259c08ac98db1eb0cf702fc1501344311d8b100cd1bfe4bb006020526040902080546001810190915590565b6040805180820182525f80825260208083018290526001600160a01b03861682527fe8b26c30fad74198956032a3533d903385d56dd795af560196f9c78d4af40d019052919091205f5160206132b75f395f51905f5290611bd49084612498565b949350505050565b611be4612505565b610adc828261254e565b611bf6612505565b61110081604051806040016040528060018152602001603160f81b81525061259e565b610bc5612505565b611c29612505565b611100816125fd565b611c3a612505565b610bc5612605565b6001600160a01b038216611c6b5760405163ec442f0560e01b81525f6004820152602401610a3b565b610adc5f8383611d5a565b5f5160206132d75f395f51905f526001600160a01b038516611cad5760405163e602df0560e01b81525f6004820152602401610a3b565b6001600160a01b038416611cd657604051634a1406b160e11b81525f6004820152602401610a3b565b6001600160a01b038086165f90815260018301602090815260408083209388168352929052208390558115611d5357836001600160a01b0316856001600160a01b03167f8c5be1e5ebec7d5bd14f71427d1e84f3dd0314c0f7b2291e5b200ac8c7c3b92585604051611d4a91815260200190565b60405180910390a35b5050505050565b6005546001600160a01b031615611dd55760055460405163634a350960e11b81526001600160a01b0385811660048301528481166024830152604482018490529091169063c6946a12906064015f604051808303815f87803b158015611dbe575f5ffd5b505af1158015611dd0573d5f5f3e3d5ffd5b505050505b6001600160a01b03831615801590611dee57505f600454115b8015611e1257506001600160a01b0383165f9081526006602052604090205460ff16155b8015611e3657506001600160a01b0382165f9081526006602052604090205460ff16155b15611e85575f6103e860045483611e4d91906130b4565b611e5791906130df565b90508015611e7757600354611e779085906001600160a01b031683612633565b611e8181836130fe565b9150505b6114de838383612633565b5f7f8b73c3c69bb8fe3d512ecc4cf759cc79239f7b179b0ffacaa9a75d522b39400f611eba6126b8565b611ec2612720565b60408051602081019490945283019190915260608201524660808201523060a082015260c00160405160208183030381529060405280519060200120905090565b5f65ffffffffffff821115611f35576040516306dfcc6560e41b81526030600482015260248101839052604401610a3b565b5090565b5f60018211611f46575090565b816001600160801b8210611f5f5760809190911c9060401b5b600160401b8210611f755760409190911c9060201b5b6401000000008210611f8c5760209190911c9060101b5b620100008210611fa15760109190911c9060081b5b6101008210611fb55760089190911c9060041b5b60108210611fc85760049190911c9060021b5b60048210611fd45760011b5b600302600190811c90818581611fec57611fec6130cb565b048201901c90506001818581612004576120046130cb565b048201901c9050600181858161201c5761201c6130cb565b048201901c90506001818581612034576120346130cb565b048201901c9050600181858161204c5761204c6130cb565b048201901c90506001818581612064576120646130cb565b048201901c905061208381858161207d5761207d6130cb565b04821190565b90039392505050565b5f5b818310156120e3575f6120a18484612762565b5f8781526020902090915065ffffffffffff86169082015465ffffffffffff1611156120cf578092506120dd565b6120da816001613111565b93505b5061208e565b509392505050565b6120f48261277c565b6040516001600160a01b038316907fbc7cd75a20ee27fd9adebab32041f755214dbc6bffa90cc0225b39da2e5c2d3b905f90a2805115612138576114de82826127df565b610adc612851565b5f61097382610b84565b5f5160206132b75f395f51905f526001600160a01b038481169084161480159061217357505f82115b15611541576001600160a01b0384161561221c576001600160a01b0384165f908152600182016020526040812081906121b7906128706121b28761287b565b6128ae565b6001600160d01b031691506001600160d01b03169150856001600160a01b03167fdec2bacdd2f05b59de34da9b523dff8be42e5e38e818c82fdb0bae774387a7248383604051612211929190918252602082015260400190565b60405180910390a250505b6001600160a01b03831615611541576001600160a01b0383165f90815260018201602052604081208190612256906128e66121b28761287b565b6001600160d01b031691506001600160d01b03169150846001600160a01b03167fdec2bacdd2f05b59de34da9b523dff8be42e5e38e818c82fdb0bae774387a72483836040516122b0929190918252602082015260400190565b60405180910390a2505050505050565b5f63ffffffff821115611f35576040516306dfcc6560e41b81526020600482015260248101839052604401610a3b565b5f807f5ab42ced628888259c08ac98db1eb0cf702fc1501344311d8b100cd1bfe4bb00610b95565b5f80807f7fffffffffffffffffffffffffffffff5d576e7357a4501ddfe92f46681b20a084111561235157505f915060039050826123d6565b604080515f808252602082018084528a905260ff891692820192909252606081018790526080810186905260019060a0016020604051602081039080840390855afa1580156123a2573d5f5f3e3d5ffd5b5050604051601f1901519150506001600160a01b0381166123cd57505f9250600191508290506123d6565b92505f91508190505b9450945094915050565b5f8260038111156123f3576123f361313b565b036123fc575050565b60018260038111156124105761241061313b565b0361242e5760405163f645eedf60e01b815260040160405180910390fd5b60028260038111156124425761244261313b565b036124635760405163fce698f760e01b815260048101829052602401610a3b565b60038260038111156124775761247761313b565b03610adc576040516335e2f38360e21b815260048101829052602401610a3b565b604080518082019091525f8082526020820152825f018263ffffffff16815481106124c5576124c561314f565b5f9182526020918290206040805180820190915291015465ffffffffffff81168252600160301b90046001600160d01b0316918101919091529392505050565b7ff0c57e16840df040f15088dc2f81fe391c3923bec73e23a9662efc9c229c6a0054600160401b900460ff16610bc557604051631afcd79f60e31b815260040160405180910390fd5b612556612505565b5f5160206132d75f395f51905f527f52c63247e1f47db19d5ce0460030c497f067ca4cebf71ba98eeadabe20bace0361258f84826131a7565b506004810161154183826131a7565b6125a6612505565b5f5160206132f75f395f51905f527fa16a46d94261c7517cc8ff89f61c0ce93598e3c849801011dee649a6a557d1026125df84826131a7565b50600381016125ee83826131a7565b505f8082556001909101555050565b6110ce612505565b61260d612505565b60017f9b779b17422d0df92223018b32b4d1fa46e071723d6817e2486d003becc55f0055565b61263e8383836128f1565b6001600160a01b0383166126ad575f6126757f52c63247e1f47db19d5ce0460030c497f067ca4cebf71ba98eeadabe20bace025490565b90506001600160d01b03808211156126aa57604051630e58ae9360e11b81526004810183905260248101829052604401610a3b565b50505b6114de838383612a2a565b5f5f5160206132f75f395f51905f52816126d0611a11565b8051909150156126e857805160209091012092915050565b815480156126f7579392505050565b7fc5d2460186f7233c927e7db2dcc703c0e500b653ca82273b7bfad8045d85a470935050505090565b5f5f5160206132f75f395f51905f5281612738611a4f565b80519091501561275057805160209091012092915050565b600182015480156126f7579392505050565b5f61277060028484186130df565b61099790848416613111565b806001600160a01b03163b5f036127b157604051634c9c8ce360e01b81526001600160a01b0382166004820152602401610a3b565b5f5160206133175f395f51905f5280546001600160a01b0319166001600160a01b0392909216919091179055565b60605f5f846001600160a01b0316846040516127fb9190613262565b5f60405180830381855af49150503d805f8114612833576040519150601f19603f3d011682016040523d82523d5f602084013e612838565b606091505b5091509150612848858383612a9b565b95945050505050565b3415610bc55760405163b398979f60e01b815260040160405180910390fd5b5f6109978284613278565b5f6001600160d01b03821115611f35576040516306dfcc6560e41b815260d0600482015260248101839052604401610a3b565b5f5f6128d96128bb610d49565b6128d16128c788611a65565b868863ffffffff16565b879190612af7565b915091505b935093915050565b5f6109978284613297565b5f5160206132d75f395f51905f526001600160a01b03841661292b5781816002015f8282546129209190613111565b9091555061299b9050565b6001600160a01b0384165f908152602082905260409020548281101561297d5760405163391434e360e21b81526001600160a01b03861660048201526024810182905260448101849052606401610a3b565b6001600160a01b0385165f9081526020839052604090209083900390555b6001600160a01b0383166129b95760028101805483900390556129d7565b6001600160a01b0383165f9081526020829052604090208054830190555b826001600160a01b0316846001600160a01b03167fddf252ad1be2c89b69c2b068fc378daa952ba7f163c4a11628f55a4df523b3ef84604051612a1c91815260200190565b60405180910390a350505050565b5f5160206132b75f395f51905f526001600160a01b038416612a5c57612a59816002016128e66121b28561287b565b50505b6001600160a01b038316612a8057612a7d816002016128706121b28561287b565b50505b611541612a8c85610afb565b612a9585610afb565b8461214a565b606082612ab057612aab82612b04565b610997565b8151158015612ac757506001600160a01b0384163b155b15612af057604051639996b31560e01b81526001600160a01b0385166004820152602401610a3b565b5080610997565b5f806128d9858585612b2d565b805115612b145780518082602001fd5b60405163d6bda27560e01b815260040160405180910390fd5b82545f9081908015612c23575f612b498761167b6001856130fe565b805490915065ffffffffffff80821691600160301b90046001600160d01b0316908816821115612b8c57604051632520601d60e01b815260040160405180910390fd5b8765ffffffffffff168265ffffffffffff1603612bc557825465ffffffffffff16600160301b6001600160d01b03891602178355612c15565b6040805180820190915265ffffffffffff808a1682526001600160d01b03808a1660208085019182528d54600181018f555f8f81529190912094519151909216600160301b029216919091179101555b94508593506128de92505050565b50506040805180820190915265ffffffffffff80851682526001600160d01b0380851660208085019182528854600181018a555f8a815291822095519251909316600160301b0291909316179201919091559050816128de565b5f81518084528060208401602086015e5f602082860101526020601f19601f83011685010191505092915050565b602081525f6109976020830184612c7d565b80356001600160a01b0381168114612cd3575f5ffd5b919050565b5f5f60408385031215612ce9575f5ffd5b612cf283612cbd565b946020939093013593505050565b5f5f5f60608486031215612d12575f5ffd5b612d1b84612cbd565b9250612d2960208501612cbd565b929592945050506040919091013590565b5f60208284031215612d4a575f5ffd5b5035919050565b634e487b7160e01b5f52604160045260245ffd5b5f5f60408385031215612d76575f5ffd5b612d7f83612cbd565b9150602083013567ffffffffffffffff811115612d9a575f5ffd5b8301601f81018513612daa575f5ffd5b803567ffffffffffffffff811115612dc457612dc4612d51565b604051601f8201601f19908116603f0116810167ffffffffffffffff81118282101715612df357612df3612d51565b604052818152828201602001871015612e0a575f5ffd5b816020840160208301375f602083830101528093505050509250929050565b5f60208284031215612e39575f5ffd5b61099782612cbd565b60ff60f81b8816815260e060208201525f612e6060e0830189612c7d565b8281036040840152612e728189612c7d565b606084018890526001600160a01b038716608085015260a0840186905283810360c0850152845180825260208087019350909101905f5b81811015612ec7578351835260209384019390920191600101612ea9565b50909b9a5050505050505050505050565b803560ff81168114612cd3575f5ffd5b5f5f5f5f5f5f60c08789031215612efd575f5ffd5b612f0687612cbd565b95506020870135945060408701359350612f2260608801612ed8565b9598949750929560808101359460a0909101359350915050565b5f5f5f5f5f5f5f60e0888a031215612f52575f5ffd5b612f5b88612cbd565b9650612f6960208901612cbd565b95506040880135945060608801359350612f8560808901612ed8565b9699959850939692959460a0840135945060c09093013592915050565b5f5f60408385031215612fb3575f5ffd5b612fbc83612cbd565b9150612fca60208401612cbd565b90509250929050565b5f5f60408385031215612fe4575f5ffd5b612fed83612cbd565b9150602083013563ffffffff81168114613005575f5ffd5b809150509250929050565b5f5f5f5f5f60a08688031215613024575f5ffd5b61302d86612cbd565b945061303b60208701612cbd565b935061304960408701612cbd565b925061305760608701612cbd565b949793965091946080013592915050565b600181811c9082168061307c57607f821691505b60208210810361309a57634e487b7160e01b5f52602260045260245ffd5b50919050565b634e487b7160e01b5f52601160045260245ffd5b8082028115828204841417610973576109736130a0565b634e487b7160e01b5f52601260045260245ffd5b5f826130f957634e487b7160e01b5f52601260045260245ffd5b500490565b81810381811115610973576109736130a0565b80820180821115610973576109736130a0565b5f60208284031215613134575f5ffd5b5051919050565b634e487b7160e01b5f52602160045260245ffd5b634e487b7160e01b5f52603260045260245ffd5b601f8211156114de57805f5260205f20601f840160051c810160208510156131885750805b601f840160051c820191505b81811015611d53575f8155600101613194565b815167ffffffffffffffff8111156131c1576131c1612d51565b6131d5816131cf8454613068565b84613163565b6020601f821160018114613207575f83156131f05750848201515b5f19600385901b1c1916600184901b178455611d53565b5f84815260208120601f198516915b828110156132365787850151825560209485019460019092019101613216565b508482101561325357868401515f19600387901b60f8161c191681555b50505050600190811b01905550565b5f82518060208501845e5f920191825250919050565b6001600160d01b038281168282160390811115610973576109736130a0565b6001600160d01b038181168382160190811115610973576109736130a056fee8b26c30fad74198956032a3533d903385d56dd795af560196f9c78d4af40d0052c63247e1f47db19d5ce0460030c497f067ca4cebf71ba98eeadabe20bace00a16a46d94261c7517cc8ff89f61c0ce93598e3c849801011dee649a6a557d100360894a13ba1a3210667c828492db98dca3e2076cc3735a920a3ca505d382bbca26469706673582212203c47398b2c2208ae0b3d2b742df48a6c10133511ef941b560a0182464a98b67c64736f6c634300081c0033","linkReferences":{}},"methodIdentifiers":{"CLOCK_MODE()":"4bf5d7e9","COMMUNITY_ALLOCATION()":"993eb1c5","DEV_ALLOCATION()":"5207b6b6","DOMAIN_SEPARATOR()":"3644e515","LIQUIDITY_ALLOCATION()":"f9428f38","TOTAL_SUPPLY()":"902d55a5","UPGRADE_INTERFACE_VERSION()":"ad3cb1cc","addExemptAddress(address)":"6078c0f9","allowance(address,address)":"dd62ed3e","antiSniperModule()":"dbef4423","approve(address,uint256)":"095ea7b3","balanceOf(address)":"70a08231","checkpoints(address,uint32)":"f1127ed8","clock()":"91ddadf4","communityAddress()":"86e476dd","decimals()":"313ce567","delegate(address)":"5c19a95c","delegateBySig(address,uint256,uint256,uint8,bytes32,bytes32)":"c3cda520","delegates(address)":"587cde1e","devAddress()":"3ad10ef6","eip712Domain()":"84b0196e","getFeeConfig()":"5fbbc0d2","getPastTotalSupply(uint256)":"8e539e8c","getPastVotes(address,uint256)":"3a46b1a8","getVotes(address)":"9ab24eb0","initialize(address,address,address,address,uint256)":"f7013ef6","isExemptAddress(address)":"5a5759b4","liquidityAddress()":"3221c93f","name()":"06fdde03","nonces(address)":"7ecebe00","numCheckpoints(address)":"6fcfff45","owner()":"8da5cb5b","paused()":"5c975abb","permit(address,address,uint256,uint256,uint8,bytes32,bytes32)":"d505accf","proxiableUUID()":"52d1902d","removeExemptAddress(address)":"7b1c359c","renounceOwnership()":"715018a6","setAntiSniperModule(address)":"d89febc3","setFeeAddress(address)":"8705fcd4","setFeeRate(uint256)":"45596e2e","symbol()":"95d89b41","totalSupply()":"18160ddd","transfer(address,uint256)":"a9059cbb","transferFrom(address,address,uint256)":"23b872dd","transferOwnership(address)":"f2fde38b","upgradeToAndCall(address,bytes)":"4f1ef286"},"id":65}