{"abi":[{"type":"constructor","inputs":[{"name":"_platformWallet","type":"address","internalType":"address payable"}],"stateMutability":"nonpayable"},{"type":"function","name":"defaultDeploymentFee","inputs":[],"outputs":[{"name":"","type":"uint256","internalType":"uint256"}],"stateMutability":"view"},{"type":"function","name":"getUserTokens","inputs":[{"name":"user","type":"address","internalType":"address"}],"outputs":[{"name":"","type":"address[]","internalType":"address[]"}],"stateMutability":"view"},{"type":"function","name":"owner","inputs":[],"outputs":[{"name":"","type":"address","internalType":"address"}],"stateMutability":"view"},{"type":"function","name":"platformDeploy","inputs":[{"name":"name_","type":"string","internalType":"string"},{"name":"symbol_","type":"string","internalType":"string"},{"name":"initialSupply_","type":"uint256","internalType":"uint256"},{"name":"user_","type":"address","internalType":"address"}],"outputs":[{"name":"","type":"address","internalType":"address"}],"stateMutability":"nonpayable"},{"type":"function","name":"platformWallet","inputs":[],"outputs":[{"name":"","type":"address","internalType":"address payable"}],"stateMutability":"view"},{"type":"function","name":"renounceOwnership","inputs":[],"outputs":[],"stateMutability":"nonpayable"},{"type":"function","name":"setDeploymentFee","inputs":[{"name":"newFee","type":"uint256","internalType":"uint256"}],"outputs":[],"stateMutability":"nonpayable"},{"type":"function","name":"setPlatformWallet","inputs":[{"name":"newWallet","type":"address","internalType":"address payable"}],"outputs":[],"stateMutability":"nonpayable"},{"type":"function","name":"transferOwnership","inputs":[{"name":"newOwner","type":"address","internalType":"address"}],"outputs":[],"stateMutability":"nonpayable"},{"type":"function","name":"userDeploy","inputs":[{"name":"name_","type":"string","internalType":"string"},{"name":"symbol_","type":"string","internalType":"string"},{"name":"initialSupply_","type":"uint256","internalType":"uint256"}],"outputs":[{"name":"","type":"address","internalType":"address"}],"stateMutability":"payable"},{"type":"function","name":"userTokens","inputs":[{"name":"","type":"address","internalType":"address"},{"name":"","type":"uint256","internalType":"uint256"}],"outputs":[{"name":"","type":"address","internalType":"address"}],"stateMutability":"view"},{"type":"event","name":"OwnershipTransferred","inputs":[{"name":"previousOwner","type":"address","indexed":true,"internalType":"address"},{"name":"newOwner","type":"address","indexed":true,"internalType":"address"}],"anonymous":false},{"type":"event","name":"TokenCreated","inputs":[{"name":"tokenAddress","type":"address","indexed":true,"internalType":"address"},{"name":"name","type":"string","indexed":false,"internalType":"string"},{"name":"symbol","type":"string","indexed":false,"internalType":"string"},{"name":"supply","type":"uint256","indexed":false,"internalType":"uint256"},{"name":"creator","type":"address","indexed":true,"internalType":"address"}],"anonymous":false},{"type":"error","name":"OwnableInvalidOwner","inputs":[{"name":"owner","type":"address","internalType":"address"}]},{"type":"error","name":"OwnableUnauthorizedAccount","inputs":[{"name":"account","type":"address","internalType":"address"}]}],"bytecode":{"object":"0x6080604052662386f26fc1000060025534801561001a575f5ffd5b506040516117d73803806117d783398101604081905261003991610133565b338061005f57604051631e4fbdf760e01b81525f60048201526024015b60405180910390fd5b610068816100e4565b506001600160a01b0381166100bf5760405162461bcd60e51b815260206004820152601760248201527f496e76616c696420706c6174666f726d2077616c6c65740000000000000000006044820152606401610056565b600180546001600160a01b0319166001600160a01b0392909216919091179055610160565b5f80546001600160a01b038381166001600160a01b0319831681178455604051919092169283917f8be0079c531659141344cd1fd0a4f28419497f9722a3daafe3b4186f6b6457e09190a35050565b5f60208284031215610143575f5ffd5b81516001600160a01b0381168114610159575f5ffd5b9392505050565b61166a8061016d5f395ff3fe60806040526004361061009a575f3560e01c806390e993891161006257806390e9938914610157578063c30ff4f714610176578063d002462b14610189578063f2fde38b146101a8578063f9f411d8146101c7578063fa2af9da146101e6575f5ffd5b8063514e09891461009e578063519dc8d2146100c6578063715018a6146100f25780638831e9cf146101085780638da5cb5b14610127575b5f5ffd5b3480156100a9575f5ffd5b506100b360025481565b6040519081526020015b60405180910390f35b3480156100d1575f5ffd5b506100e56100e03660046106d6565b610205565b6040516100bd91906106f8565b3480156100fd575f5ffd5b50610106610278565b005b348015610113575f5ffd5b506101066101223660046106d6565b61028b565b348015610132575f5ffd5b505f546001600160a01b03165b6040516001600160a01b0390911681526020016100bd565b348015610162575f5ffd5b5061013f6101713660046107e2565b610301565b61013f610184366004610862565b610415565b348015610194575f5ffd5b506101066101a33660046108d0565b6105bc565b3480156101b3575f5ffd5b506101066101c23660046106d6565b6105c9565b3480156101d2575f5ffd5b5061013f6101e13660046108e7565b610606565b3480156101f1575f5ffd5b5060015461013f906001600160a01b031681565b6001600160a01b0381165f9081526003602090815260409182902080548351818402810184019094528084526060939283018282801561026c57602002820191905f5260205f20905b81546001600160a01b0316815260019091019060200180831161024e575b50505050509050919050565b61028061063a565b6102895f610666565b565b61029361063a565b6001600160a01b0381166102df5760405162461bcd60e51b815260206004820152600e60248201526d125b9d985b1a59081dd85b1b195d60921b60448201526064015b60405180910390fd5b600180546001600160a01b0319166001600160a01b0392909216919091179055565b5f61030a61063a565b6001600160a01b0382166103575760405162461bcd60e51b8152602060048201526014602482015273496e76616c69642075736572206164647265737360601b60448201526064016102d6565b5f85858585604051610368906106b5565b610375949392919061093f565b604051809103905ff08015801561038e573d5f5f3e3d5ffd5b506001600160a01b038481165f8181526003602090815260408083208054600181018255908452919092200180546001600160a01b031916938516938417905551929350917fb7d8fd3c9d56d12c15c8e139bc4e6febd6ad2349b3ebe6a1a91c0a9e7797710d90610404908a908a908a90610985565b60405180910390a395945050505050565b5f60025434101561045b5760405162461bcd60e51b815260206004820152601060248201526f496e73756666696369656e742066656560801b60448201526064016102d6565b5f8484843360405161046c906106b5565b610479949392919061093f565b604051809103905ff080158015610492573d5f5f3e3d5ffd5b50335f90815260036020908152604080832080546001808201835591855292842090920180546001600160a01b0319166001600160a01b038681169190911790915591549051939450919291169034908381818185875af1925050503d805f8114610518576040519150601f19603f3d011682016040523d82523d5f602084013e61051d565b606091505b50509050806105645760405162461bcd60e51b8152602060048201526013602482015272119959481d1c985b9cd9995c8819985a5b1959606a1b60448201526064016102d6565b336001600160a01b0316826001600160a01b03167fb7d8fd3c9d56d12c15c8e139bc4e6febd6ad2349b3ebe6a1a91c0a9e7797710d8888886040516105ab93929190610985565b60405180910390a350949350505050565b6105c461063a565b600255565b6105d161063a565b6001600160a01b0381166105fa57604051631e4fbdf760e01b81525f60048201526024016102d6565b61060381610666565b50565b6003602052815f5260405f20818154811061061f575f80fd5b5f918252602090912001546001600160a01b03169150829050565b5f546001600160a01b031633146102895760405163118cdaa760e01b81523360048201526024016102d6565b5f80546001600160a01b038381166001600160a01b0319831681178455604051919092169283917f8be0079c531659141344cd1fd0a4f28419497f9722a3daafe3b4186f6b6457e09190a35050565b610c7a806109bb83390190565b6001600160a01b0381168114610603575f5ffd5b5f602082840312156106e6575f5ffd5b81356106f1816106c2565b9392505050565b602080825282518282018190525f918401906040840190835b818110156107385783516001600160a01b0316835260209384019390920191600101610711565b509095945050505050565b634e487b7160e01b5f52604160045260245ffd5b5f82601f830112610766575f5ffd5b813567ffffffffffffffff81111561078057610780610743565b604051601f8201601f19908116603f0116810167ffffffffffffffff811182821017156107af576107af610743565b6040528181528382016020018510156107c6575f5ffd5b816020850160208301375f918101602001919091529392505050565b5f5f5f5f608085870312156107f5575f5ffd5b843567ffffffffffffffff81111561080b575f5ffd5b61081787828801610757565b945050602085013567ffffffffffffffff811115610833575f5ffd5b61083f87828801610757565b935050604085013591506060850135610857816106c2565b939692955090935050565b5f5f5f60608486031215610874575f5ffd5b833567ffffffffffffffff81111561088a575f5ffd5b61089686828701610757565b935050602084013567ffffffffffffffff8111156108b2575f5ffd5b6108be86828701610757565b93969395505050506040919091013590565b5f602082840312156108e0575f5ffd5b5035919050565b5f5f604083850312156108f8575f5ffd5b8235610903816106c2565b946020939093013593505050565b5f81518084528060208401602086015e5f602082860101526020601f19601f83011685010191505092915050565b608081525f6109516080830187610911565b82810360208401526109638187610911565b604084019590955250506001600160a01b039190911660609091015292915050565b606081525f6109976060830186610911565b82810360208401526109a98186610911565b91505082604083015294935050505056fe608060405234801561000f575f5ffd5b50604051610c7a380380610c7a83398101604081905261002e91610286565b8383600361003c8382610397565b5060046100498282610397565b5050506100788161005e61008160201b60201c565b61006990600a61054a565b610073908561055f565b610086565b50505050610589565b601290565b6001600160a01b0382166100b45760405163ec442f0560e01b81525f60048201526024015b60405180910390fd5b6100bf5f83836100c3565b5050565b6001600160a01b0383166100ed578060025f8282546100e29190610576565b9091555061015d9050565b6001600160a01b0383165f908152602081905260409020548181101561013f5760405163391434e360e21b81526001600160a01b038516600482015260248101829052604481018390526064016100ab565b6001600160a01b0384165f9081526020819052604090209082900390555b6001600160a01b03821661017957600280548290039055610197565b6001600160a01b0382165f9081526020819052604090208054820190555b816001600160a01b0316836001600160a01b03167fddf252ad1be2c89b69c2b068fc378daa952ba7f163c4a11628f55a4df523b3ef836040516101dc91815260200190565b60405180910390a3505050565b634e487b7160e01b5f52604160045260245ffd5b5f82601f83011261020c575f5ffd5b81516001600160401b03811115610225576102256101e9565b604051601f8201601f19908116603f011681016001600160401b0381118282101715610253576102536101e9565b60405281815283820160200185101561026a575f5ffd5b8160208501602083015e5f918101602001919091529392505050565b5f5f5f5f60808587031215610299575f5ffd5b84516001600160401b038111156102ae575f5ffd5b6102ba878288016101fd565b602087015190955090506001600160401b038111156102d7575f5ffd5b6102e3878288016101fd565b60408701516060880151919550935090506001600160a01b0381168114610308575f5ffd5b939692955090935050565b600181811c9082168061032757607f821691505b60208210810361034557634e487b7160e01b5f52602260045260245ffd5b50919050565b601f82111561039257805f5260205f20601f840160051c810160208510156103705750805b601f840160051c820191505b8181101561038f575f815560010161037c565b50505b505050565b81516001600160401b038111156103b0576103b06101e9565b6103c4816103be8454610313565b8461034b565b6020601f8211600181146103f6575f83156103df5750848201515b5f19600385901b1c1916600184901b17845561038f565b5f84815260208120601f198516915b828110156104255787850151825560209485019460019092019101610405565b508482101561044257868401515f19600387901b60f8161c191681555b50505050600190811b01905550565b634e487b7160e01b5f52601160045260245ffd5b6001815b60018411156104a05780850481111561048457610484610451565b600184161561049257908102905b60019390931c928002610469565b935093915050565b5f826104b657506001610544565b816104c257505f610544565b81600181146104d857600281146104e2576104fe565b6001915050610544565b60ff8411156104f3576104f3610451565b50506001821b610544565b5060208310610133831016604e8410600b8410161715610521575081810a610544565b61052d5f198484610465565b805f190482111561054057610540610451565b0290505b92915050565b5f61055860ff8416836104a8565b9392505050565b808202811582820484141761054457610544610451565b8082018082111561054457610544610451565b6106e4806105965f395ff3fe608060405234801561000f575f5ffd5b5060043610610090575f3560e01c8063313ce56711610063578063313ce567146100fa57806370a082311461010957806395d89b4114610131578063a9059cbb14610139578063dd62ed3e1461014c575f5ffd5b806306fdde0314610094578063095ea7b3146100b257806318160ddd146100d557806323b872dd146100e7575b5f5ffd5b61009c610184565b6040516100a99190610554565b60405180910390f35b6100c56100c03660046105a4565b610214565b60405190151581526020016100a9565b6002545b6040519081526020016100a9565b6100c56100f53660046105cc565b61022d565b604051601281526020016100a9565b6100d9610117366004610606565b6001600160a01b03165f9081526020819052604090205490565b61009c610250565b6100c56101473660046105a4565b61025f565b6100d961015a366004610626565b6001600160a01b039182165f90815260016020908152604080832093909416825291909152205490565b60606003805461019390610657565b80601f01602080910402602001604051908101604052809291908181526020018280546101bf90610657565b801561020a5780601f106101e15761010080835404028352916020019161020a565b820191905f5260205f20905b8154815290600101906020018083116101ed57829003601f168201915b5050505050905090565b5f3361022181858561026c565b60019150505b92915050565b5f3361023a85828561027e565b6102458585856102ff565b506001949350505050565b60606004805461019390610657565b5f336102218185856102ff565b610279838383600161035c565b505050565b6001600160a01b038381165f908152600160209081526040808320938616835292905220545f198110156102f957818110156102eb57604051637dc7a0d960e11b81526001600160a01b038416600482015260248101829052604481018390526064015b60405180910390fd5b6102f984848484035f61035c565b50505050565b6001600160a01b03831661032857604051634b637e8f60e11b81525f60048201526024016102e2565b6001600160a01b0382166103515760405163ec442f0560e01b81525f60048201526024016102e2565b61027983838361042e565b6001600160a01b0384166103855760405163e602df0560e01b81525f60048201526024016102e2565b6001600160a01b0383166103ae57604051634a1406b160e11b81525f60048201526024016102e2565b6001600160a01b038085165f90815260016020908152604080832093871683529290522082905580156102f957826001600160a01b0316846001600160a01b03167f8c5be1e5ebec7d5bd14f71427d1e84f3dd0314c0f7b2291e5b200ac8c7c3b9258460405161042091815260200190565b60405180910390a350505050565b6001600160a01b038316610458578060025f82825461044d919061068f565b909155506104c89050565b6001600160a01b0383165f90815260208190526040902054818110156104aa5760405163391434e360e21b81526001600160a01b038516600482015260248101829052604481018390526064016102e2565b6001600160a01b0384165f9081526020819052604090209082900390555b6001600160a01b0382166104e457600280548290039055610502565b6001600160a01b0382165f9081526020819052604090208054820190555b816001600160a01b0316836001600160a01b03167fddf252ad1be2c89b69c2b068fc378daa952ba7f163c4a11628f55a4df523b3ef8360405161054791815260200190565b60405180910390a3505050565b602081525f82518060208401528060208501604085015e5f604082850101526040601f19601f83011684010191505092915050565b80356001600160a01b038116811461059f575f5ffd5b919050565b5f5f604083850312156105b5575f5ffd5b6105be83610589565b946020939093013593505050565b5f5f5f606084860312156105de575f5ffd5b6105e784610589565b92506105f560208501610589565b929592945050506040919091013590565b5f60208284031215610616575f5ffd5b61061f82610589565b9392505050565b5f5f60408385031215610637575f5ffd5b61064083610589565b915061064e60208401610589565b90509250929050565b600181811c9082168061066b57607f821691505b60208210810361068957634e487b7160e01b5f52602260045260245ffd5b50919050565b8082018082111561022757634e487b7160e01b5f52601160045260245ffdfea26469706673582212208f3475ecd90522d442f5c57f14971355fb3a98639adcc05a3cf994631a2e121064736f6c634300081c0033a26469706673582212206e5e532ca5ff1275fb4fb56a18735362c984c66bae0e32151720702ca300fed264736f6c634300081c0033","linkReferences":{}},"methodIdentifiers":{"defaultDeploymentFee()":"514e0989","getUserTokens(address)":"519dc8d2","owner()":"8da5cb5b","platformDeploy(string,string,uint256,address)":"90e99389","platformWallet()":"fa2af9da","renounceOwnership()":"715018a6","setDeploymentFee(uint256)":"d002462b","setPlatformWallet(address)":"8831e9cf","transferOwnership(address)":"f2fde38b","userDeploy(string,string,uint256)":"c30ff4f7","userTokens(address,uint256)":"f9f411d8"},"id":26}