{"abi":[{"type":"constructor","inputs":[{"name":"_signer","type":"address","internalType":"address"},{"name":"_memaoToken","type":"address","internalType":"address"},{"name":"_communityWallet","type":"address","internalType":"address"}],"stateMutability":"nonpayable"},{"type":"function","name":"communityWallet","inputs":[],"outputs":[{"name":"","type":"address","internalType":"address"}],"stateMutability":"view"},{"type":"function","name":"memaoToken","inputs":[],"outputs":[{"name":"","type":"address","internalType":"contract IERC20"}],"stateMutability":"view"},{"type":"function","name":"nonces","inputs":[{"name":"","type":"address","internalType":"address"}],"outputs":[{"name":"","type":"uint256","internalType":"uint256"}],"stateMutability":"view"},{"type":"function","name":"owner","inputs":[],"outputs":[{"name":"","type":"address","internalType":"address"}],"stateMutability":"view"},{"type":"function","name":"setCommunityWallet","inputs":[{"name":"_newCommunityWallet","type":"address","internalType":"address"}],"outputs":[],"stateMutability":"nonpayable"},{"type":"function","name":"setSigner","inputs":[{"name":"_newSigner","type":"address","internalType":"address"}],"outputs":[],"stateMutability":"nonpayable"},{"type":"function","name":"setToken","inputs":[{"name":"_newToken","type":"address","internalType":"address"}],"outputs":[],"stateMutability":"nonpayable"},{"type":"function","name":"signer","inputs":[],"outputs":[{"name":"","type":"address","internalType":"address"}],"stateMutability":"view"},{"type":"function","name":"transferOwnership","inputs":[{"name":"newOwner","type":"address","internalType":"address"}],"outputs":[],"stateMutability":"nonpayable"},{"type":"function","name":"withdraw","inputs":[{"name":"amountWei","type":"uint256","internalType":"uint256"},{"name":"nonce","type":"uint256","internalType":"uint256"},{"name":"signature","type":"bytes","internalType":"bytes"}],"outputs":[],"stateMutability":"nonpayable"},{"type":"event","name":"CommunityWalletUpdated","inputs":[{"name":"oldWallet","type":"address","indexed":false,"internalType":"address"},{"name":"newWallet","type":"address","indexed":false,"internalType":"address"}],"anonymous":false},{"type":"event","name":"SignerUpdated","inputs":[{"name":"oldSigner","type":"address","indexed":false,"internalType":"address"},{"name":"newSigner","type":"address","indexed":false,"internalType":"address"}],"anonymous":false},{"type":"event","name":"TokenUpdated","inputs":[{"name":"oldToken","type":"address","indexed":false,"internalType":"address"},{"name":"newToken","type":"address","indexed":false,"internalType":"address"}],"anonymous":false},{"type":"event","name":"Withdraw","inputs":[{"name":"user","type":"address","indexed":true,"internalType":"address"},{"name":"amount","type":"uint256","indexed":false,"internalType":"uint256"},{"name":"nonce","type":"uint256","indexed":false,"internalType":"uint256"}],"anonymous":false}],"bytecode":{"object":"0x608060405234801561000f575f5ffd5b506040516110cd3803806110cd83398101604081905261002e9161017d565b6001600160a01b03831661007a5760405162461bcd60e51b815260206004820152600e60248201526d24b73b30b634b21039b4b3b732b960911b60448201526064015b60405180910390fd5b6001600160a01b0382166100c05760405162461bcd60e51b815260206004820152600d60248201526c24b73b30b634b2103a37b5b2b760991b6044820152606401610071565b6001600160a01b0381166101165760405162461bcd60e51b815260206004820152601860248201527f496e76616c696420636f6d6d756e6974792077616c6c657400000000000000006044820152606401610071565b5f80546001600160a01b03199081163317909155600180546001600160a01b039586169083161790556002805493851693821693909317909255600380549190931691161790556101bd565b80516001600160a01b0381168114610178575f5ffd5b919050565b5f5f5f6060848603121561018f575f5ffd5b61019884610162565b92506101a660208501610162565b91506101b460408501610162565b90509250925092565b610f03806101ca5f395ff3fe608060405234801561000f575f5ffd5b506004361061009b575f3560e01c80637ecebe00116100635780637ecebe001461011d57806385d6bb811461014a5780638da5cb5b1461015d578063c75748391461016f578063f2fde38b14610182575f5ffd5b80630c196c2f1461009f578063144fa6d7146100cf578063238ac933146100e45780636c19e783146100f7578063744fb6ca1461010a575b5f5ffd5b6002546100b2906001600160a01b031681565b6040516001600160a01b0390911681526020015b60405180910390f35b6100e26100dd366004610b1a565b610195565b005b6001546100b2906001600160a01b031681565b6100e2610105366004610b1a565b610269565b6100e2610118366004610b5b565b610333565b61013c61012b366004610b1a565b60046020525f908152604090205481565b6040519081526020016100c6565b6100e2610158366004610b1a565b6105b0565b5f546100b2906001600160a01b031681565b6003546100b2906001600160a01b031681565b6100e2610190366004610b1a565b610673565b5f546001600160a01b031633146101c75760405162461bcd60e51b81526004016101be90610c20565b60405180910390fd5b6001600160a01b0381166102075760405162461bcd60e51b8152602060048201526007602482015266125b9d985b1a5960ca1b60448201526064016101be565b600280546001600160a01b038381166001600160a01b031983168117909355604080519190921680825260208201939093527f0b1186973f810894b87ab0bfbee422fddcaad21b46dc705a561451bbb6bac11791015b60405180910390a15050565b5f546001600160a01b031633146102925760405162461bcd60e51b81526004016101be90610c20565b6001600160a01b0381166102d95760405162461bcd60e51b815260206004820152600e60248201526d24b73b30b634b21039b4b3b732b960911b60448201526064016101be565b600180546001600160a01b038381166001600160a01b031983168117909355604080519190921680825260208201939093527f2d025324f0a785e8c12d0a0d91a9caa49df4ef20ff87e0df7213a1d4f3157beb910161025d565b335f9081526004602052604090205482146103805760405162461bcd60e51b815260206004820152600d60248201526c496e76616c6964206e6f6e636560981b60448201526064016101be565b5f61039261038d33610703565b610828565b61039b856108b4565b6103a4856108b4565b6040516020016103b693929190610c5b565b60405160208183030381529060405290505f61042582805190602001206040517f19457468657265756d205369676e6564204d6573736167653a0a3332000000006020820152603c81018290525f90605c01604051602081830303815290604052805190602001209050919050565b90505f61043282856109bb565b6001549091506001600160a01b038083169116146104865760405162461bcd60e51b8152602060048201526011602482015270496e76616c6964207369676e617475726560781b60448201526064016101be565b6002546003546040516323b872dd60e01b81526001600160a01b039182166004820152336024820152604481018990525f9291909116906323b872dd906064016020604051808303815f875af11580156104e2573d5f5f3e3d5ffd5b505050506040513d601f19601f820116820180604052508101906105069190610c9a565b90508061054d5760405162461bcd60e51b8152602060048201526015602482015274151bdad95b881d1c985b9cd9995c8819985a5b1959605a1b60448201526064016101be565b335f90815260046020526040812080549161056783610ccd565b9091555050604080518881526020810188905233917ff279e6a1f5e320cca91135676d9cb6e44ca8a08c0b88342bcdb1144f6511b568910160405180910390a250505050505050565b5f546001600160a01b031633146105d95760405162461bcd60e51b81526004016101be90610c20565b6001600160a01b0381166106195760405162461bcd60e51b8152602060048201526007602482015266125b9d985b1a5960ca1b60448201526064016101be565b600380546001600160a01b038381166001600160a01b031983168117909355604080519190921680825260208201939093527fb3e05092d990bc569e1f26bf0c79c524dc72aaae001c9bca224d2aec09cc023e910161025d565b5f546001600160a01b0316331461069c5760405162461bcd60e51b81526004016101be90610c20565b6001600160a01b0381166106e25760405162461bcd60e51b815260206004820152600d60248201526c24b73b30b634b21037bbb732b960991b60448201526064016101be565b5f80546001600160a01b0319166001600160a01b0392909216919091179055565b60408051602880825260608281019093525f9190602082018180368337019050509050825f5b601481101561081f575f61073e826013610ce5565b610749906008610cf8565b610754906002610df2565b610767906001600160a01b038516610e11565b90505f610775601083610e24565b90505f610783826010610e45565b61078d9084610e61565b905061079882610aee565b866107a4866002610cf8565b815181106107b4576107b4610e7a565b60200101906001600160f81b03191690815f1a9053506107d381610aee565b866107df866002610cf8565b6107ea906001610e8e565b815181106107fa576107fa610e7a565b60200101906001600160f81b03191690815f1a90535050600190920191506107299050565b50909392505050565b6060815f5b81518110156108ad575f82828151811061084957610849610e7a565b016020015160f81c9050604181108015906108685750605a8160ff1611155b156108a457610878816020610ea1565b60f81b83838151811061088d5761088d610e7a565b60200101906001600160f81b03191690815f1a9053505b5060010161082d565b5092915050565b6060815f036108da5750506040805180820190915260018152600360fc1b602082015290565b815f5b811561090357806108ed81610ccd565b91506108fc9050600a83610e11565b91506108dd565b5f8167ffffffffffffffff81111561091d5761091d610b47565b6040519080825280601f01601f191660200182016040528015610947576020820181803683370190505b509050815b85156109b25761095d600182610ce5565b905061096a600a87610eba565b610975906030610e8e565b60f81b82828151811061098a5761098a610e7a565b60200101906001600160f81b03191690815f1a9053506109ab600a87610e11565b955061094c565b50949350505050565b5f8151604114610a0d5760405162461bcd60e51b815260206004820152601860248201527f496e76616c6964207369676e6174757265206c656e677468000000000000000060448201526064016101be565b6020820151604083015160608401515f1a601b811015610a3557610a32601b82610ea1565b90505b8060ff16601b1480610a4a57508060ff16601c145b610a885760405162461bcd60e51b815260206004820152600f60248201526e496e76616c696420762076616c756560881b60448201526064016101be565b604080515f81526020810180835288905260ff831691810191909152606081018490526080810183905260019060a0016020604051602081039080840390855afa158015610ad8573d5f5f3e3d5ffd5b5050506020604051035193505050505b92915050565b5f600a8260ff161015610b0f57610b06826030610ea1565b60f81b92915050565b610b06826057610ea1565b5f60208284031215610b2a575f5ffd5b81356001600160a01b0381168114610b40575f5ffd5b9392505050565b634e487b7160e01b5f52604160045260245ffd5b5f5f5f60608486031215610b6d575f5ffd5b8335925060208401359150604084013567ffffffffffffffff811115610b91575f5ffd5b8401601f81018613610ba1575f5ffd5b803567ffffffffffffffff811115610bbb57610bbb610b47565b604051601f8201601f19908116603f0116810167ffffffffffffffff81118282101715610bea57610bea610b47565b604052818152828201602001881015610c01575f5ffd5b816020840160208301375f602083830101528093505050509250925092565b6020808252600a908201526927b7363c9037bbb732b960b11b604082015260600190565b5f81518060208401855e5f93019283525090919050565b5f610c668286610c44565b601d60f91b8152610c7a6001820186610c44565b9050601d60f91b8152610c906001820185610c44565b9695505050505050565b5f60208284031215610caa575f5ffd5b81518015158114610b40575f5ffd5b634e487b7160e01b5f52601160045260245ffd5b5f60018201610cde57610cde610cb9565b5060010190565b81810381811115610ae857610ae8610cb9565b8082028115828204841417610ae857610ae8610cb9565b6001815b6001841115610d4a57808504811115610d2e57610d2e610cb9565b6001841615610d3c57908102905b60019390931c928002610d13565b935093915050565b5f82610d6057506001610ae8565b81610d6c57505f610ae8565b8160018114610d825760028114610d8c57610da8565b6001915050610ae8565b60ff841115610d9d57610d9d610cb9565b50506001821b610ae8565b5060208310610133831016604e8410600b8410161715610dcb575081810a610ae8565b610dd75f198484610d0f565b805f1904821115610dea57610dea610cb9565b029392505050565b5f610b408383610d52565b634e487b7160e01b5f52601260045260245ffd5b5f82610e1f57610e1f610dfd565b500490565b5f60ff831680610e3657610e36610dfd565b8060ff84160491505092915050565b60ff81811683821602908116908181146108ad576108ad610cb9565b60ff8281168282160390811115610ae857610ae8610cb9565b634e487b7160e01b5f52603260045260245ffd5b80820180821115610ae857610ae8610cb9565b60ff8181168382160190811115610ae857610ae8610cb9565b5f82610ec857610ec8610dfd565b50069056fea2646970667358221220ec4a4fa77bdbb704ca8befe50ce6778da511dec25301986429c795fd7854b00864736f6c634300081c0033","linkReferences":{}},"methodIdentifiers":{"communityWallet()":"c7574839","memaoToken()":"0c196c2f","nonces(address)":"7ecebe00","owner()":"8da5cb5b","setCommunityWallet(address)":"85d6bb81","setSigner(address)":"6c19e783","setToken(address)":"144fa6d7","signer()":"238ac933","transferOwnership(address)":"f2fde38b","withdraw(uint256,uint256,bytes)":"744fb6ca"},"id":76}